:10000000382500207927000075270000752700009B
:1000100000000000000000000000000000000000E0
:100020000000000000000000000000007527000034
:100030000000000000000000752700007527000088
:100040007527000075270000110B000075270000C0
:10005000752700002D0D0000752700007527000092
:10006000F10E0000691A0000791A0000891A0000D8
:10007000991A0000A91A0000B91A0000893300007B
:1000800075270000D90D0000E90D0000F90D0000F2
:1000900075270000752700007527000075270000F0
:1000A0007527000041070000510700007527000078
:1000B00075270000752700007527000010B5064C55
:1000C0002378002B07D1054B002B02D0044800E019
:1000D00000BF0123237010BD980000200000000025
:1000E000F0520000084B10B5002B03D00749084818
:1000F00000E000BF07480368002B00D110BD064B8D
:10010000002BFBD09847F9E7000000009C0000207E
:10011000F0520000F052000000000000064B984230
:1001200008D0064A0023904201D0180070470133DE
:10013000DBB2FAE70023FBE700440042004800423C
:1001400010B500230022037043708370C370002138
:1001500003830362C36101240471C0246401C48069
:10016000017242728272C27202732A240255427371
:100170008273C27303610275063C0255C384038512
:10018000417510BDF0B5DE4657464E464546E0B5D2
:100190009FB005000E0017000800984B9847040018
:1001A00001902E60964AD3698000964941580B43CE
:1001B000D36133780520DB0706D51FB03CBC9046E1
:1001C0009946A246AB46F0BD2A68138C9BB2002B21
:1001D000FBD133781C209B07EFD47B782B71002B4D
:1001E00004D1894AD36904210B43D3610023AB6056
:1001F000EB602B61AB76EB762B832B77A300834AE6
:100200009D502A23FB5C002B05D13B7B002B02D1A8
:1002100001336B7701E000236B772B689A463B78BC
:1002200004AA13707A4B1E5D11003000794B984779
:100230003000794B98473B79984606AE774B9C4601
:100240003200190049C949C249C949C249C949C20C
:1002500049C949C212A9634630330A0043CB43C29D
:1002600043CB43C243CB43C243CB43C2019B002B8E
:1002700004D012A9012B02D0002100E006A9A3009E
:10028000674A9B589B46984522D9FB88984606AEFC
:10029000624B9C463200190049C949C249C949C24A
:1002A00049C949C249C949C212A9634630330A0043
:1002B00043CB43C243CB43C243CB43C243CB43C2F2
:1002C000019A002A12D012AB012A10D000230EE0AE
:1002D00043469800405805A900234B70CB708B70A3
:1002E00001330B70C0B24F4B9847CEE706ABD845F1
:1002F0000AD90021002601239946484B98460394C9
:100300005B460293AB4620E042469000C05805A9E8
:1003100000234B70CB708B7001330B70C0B2414B1C
:100320009847E6E706AB8900C85805A900234B703B
:10033000CB708B704B460B70C0B23A4B984701366E
:10034000F6B23100029B9E4223D84B46B3403A6935
:100350001A42F4D006A80300424631CA31C331CA5A
:1003600031C331CA31C331CA31C312A84346303315
:10037000020031CB31C231CB31C231CB31C231CBB2
:1003800031C2019A002ACDD012AB012ACBD0002372
:10039000C9E75D46039C7B7B9B01BA7BD20113437B
:1003A000DBB2524613703B7DDB017A781343DBB23C
:1003B00052469370FB78342B00D94FE19B001A4AC8
:1003C000D3589F4604221026022132E0797A3A7AE5
:1003D00010262EE00622102601212AE008221026EF
:1003E000002126E000223026002122E000222026E3
:1003F00000211EE00022002600211AE01D0100005D
:1004000000080040945000000018004068040020DC
:10041000BC5000001D260000AD2500003450000037
:10042000B450000019270000604F0000022210267F
:100430000121090170230B401343524613732A68AC
:10044000138C9BB2002BFBD17B7D17203F2B00D957
:10045000B3E6FA7BD2011343DBB2524653732A68E8
:10046000138C9BB2002BFBD1BB78524653702423D4
:10047000FB5CDB003A7B92001A43FB7A1343BA7AA7
:10048000520013433343524653812A68138C9BB264
:10049000002BFBD13B8B002B20D0102E00D1BFE0D6
:1004A00000D87FE0202E00D19CE0302E16D1FA7AC1
:1004B000002A0AD0FA6980321720FF2A00D97CE688
:1004C0003A6A8032FF2A00D977E61720FA69FF2AB4
:1004D00000DD72E63A6AFF2A00DD6EE65246528976
:1004E0001343524653812A68138C9BB2002BFBD1D5
:1004F000BB8B5246D3812A68138C9BB2002BFBD155
:100500003B8C524613822A68138C9BB2002BFBD182
:100510003B79FA881343524613812A68138C9BB2A5
:10052000002BFBD12A33FB5C5246D3700723137197
:100530001D33FB5C002B1DD0FB8C494A17209342D6
:1005400000D93AE6524653822A68138C9BB2002B9C
:10055000FBD13A8D80231B01D31841499BB2172050
:100560008B4200D929E653469A822A68138C9BB2A3
:10057000002BFBD1A2003B4BD3583B49095D1B68C4
:10058000CB401B02E021C9000B4038495258384982
:10059000095D1268CA4007210A40134352469385F9
:1005A00000200AE6002E99D1FA7A002A0FD0FA69C3
:1005B000802109018C466244294917208A4200D9CA
:1005C000FBE53A6A624426498A4200D9F5E5244AA5
:1005D0001720F969914200DDEFE5396A914200DDAB
:1005E000EBE57BE7FA7A002A0FD0FA6980218900CF
:1005F0008C4662441F4917208A4200D9DDE53A6AD9
:1006000062441C498A4200D9D7E51A4A1720F96981
:10061000914200DDD1E5396A914200DDCDE55DE72B
:10062000FA7A002A0FD0FA69802109028C466244C6
:10063000114917208A4200D9BFE53A6A62440E493F
:100640008A4200D9B9E50C4A1720F969914200DDC8
:10065000B3E5396A914200DDAFE53FE71720ACE52D
:10066000FF0F0000A8500000B05000009C50000098
:10067000A4500000FF030000FFFF000070B58000E1
:100680002E4BC45823689D79EDB2EA072DD5E27E42
:10069000D2072AD5A27ED20727D501229A71626994
:1006A000931C636123689B8C9BB21380238B013B5B
:1006B0009BB22383002B15D0637F002B15D02268BB
:1006C000D3795BB2002B10DB138C9BB2002BFBD1D8
:1006D000137E02210B4313762268138C9BB2002BEE
:1006E000FBD102E0237F052B16D06B0708D504232E
:1006F00022689371E37E9B0702D5A37E9B0714D4E7
:10070000AB0708D5022322689371E37E5B0702D50D
:10071000A37E5B070DD470BD0023237701332268CD
:1007200013712000A3689847DFE72000E36898472B
:10073000E6E7236920009847EDE7C04668040020FB
:1007400010B50020014B984710BDC0467D06000043
:1007500010B50120014B984710BDC0467D06000032
:1007600003681869431E9841C0B2704700230370A4
:100770000122427083700371C370437183717047AB
:10078000F0B5C64600B582B0050014000160254AE8
:10079000D06980239B030343D3610B781C209B0704
:1007A00003D502B004BC9046F0BD0B781738DB07C8
:1007B000F7D401A9E3780B701F301B4B9847242016
:1007C0001A4B984700266B465E70DE7001236A461E
:1007D0001370967069460220154B98472F6863780E
:1007E0002B71AE7163795A1E93419B01227890461A
:1007F000A278002A03D00422414611438846227978
:10080000002A03D00822414611438846DBB23B70E0
:10081000084E2800B0470028FBD143467B70237860
:100820006B71BEE7000800401D260000AD250000EA
:10083000192700006107000070B5040005686B7897
:10084000027913436B700C4E2000B0470028FBD197
:100850002B78022213432B706379002B04D1074AB3
:10086000D36904210B43D3612B789B0703D5012265
:10087000EB791342FCD070BD610700000018004006
:100880007047704770470000F8B50400170006680D
:10089000064D2000A8470028FBD1A379002B02D1E8
:1008A00037810020F8BDB781FBE7C0466107000033
:1008B00002680421074B196001680B69002BFCD109
:1008C000138802210B43138002681369002BFCD1AB
:1008D0007047C04600E100E010B5036804248022A0
:1008E00008498C5001680A69002AFCD1064A1A811D
:1008F0009A811A8802218A431A8002681369002BA0
:10090000FCD110BD00E100E0FF81FFFF70B50400E5
:100910000568094B9847002323866386226813697C
:10092000002BFCD12B88012213432B8022681369F2
:10093000002BFCD170BDC046D908000010B5CB8893
:10094000C2889A1A92064B799B050C79640423435A
:100950008C782403234313430279002A05D1CA78F3
:10096000002A02D0802252021343487880010A787C
:100970001043184310BD10B58B0EC4881B19D380CB
:100980008B011B0F53718B02DB0E13710379002B4C
:100990000CD10B041B0F9370CB03DB0FD3708809B2
:1009A0003F23184050701940117010BDCB03DB0E6F
:1009B0009370F4E770B504000568054B98472B6900
:1009C000002BFCD1A86122681369002BFCD170BDFB
:1009D0003D09000010B50A0004682369002BFCD112
:1009E000A169014B984710BD77090000F8B50500D3
:1009F0000E0014001720012A00D9F8BD2F68280026
:100A00000A4B98473B69002BFCD1E4003C1920625B
:100A10002A681369002BFCD1327A2433E2542A6805
:100A20001369002BFCD10020E7E7C0463D09000018
:100A300070B5050014000160164A516980239B00BF
:100A40000B4353610022144B1A61144B9847E3780F
:100A50002B71A388EB80124B1D602A682388A17933
:100A6000002913D108310B43E178002901D140312D
:100A70000B43A178002901D080210B431380210072
:100A8000083100222800074B984770BD06490B43E8
:100A9000EAE7C04600080040001400400D090000CD
:100AA00070040020ED09000008800000092A01D927
:100AB00017207047931C9B001950038E0121914011
:100AC0000B439BB203860020F3E7000010B50268D9
:100AD000092911D0072912D980235B000C00083C9A
:100AE000A3408024640023405381438E01228A4026
:100AF00013439BB2438610BD044B5381F5E7012499
:100B00008C40FF2323405381EFE7C0460080FFFF66
:100B1000F8B5DE4657464E464546E0B5244B1B68C1
:100B20009A461E685B8E5246128E1A409046B289D3
:100B3000738913401AB2002A08DBFF271F402AD00E
:100B4000002401239946FE339B4614E043469B054F
:100B500007D4184BB3813CBC90469946A246AB469D
:100B6000F8BD5346DB6A9847F3E75B461D40B58105
:100B70000134082CEFD023004D46A5402F42F4D07D
:100B80004246224149461142EFD002339B00524671
:100B90009B589847E9E7DB05DDD54346DB0503D4E1
:100BA00080235B00B381D6E753469B6A9847F7E7FB
:100BB000700400200080FFFF10B582B00400284AB6
:100BC000516980235B010B435361264B1B78052041
:100BD000DB0701D502B010BD224B1B7817309B07F5
:100BE000F8D401A923780B7017381F4B98470520BC
:100BF0001E4B9847A3789B01DBB21A4A13702379E6
:100C0000002B06D01720A2682832E3DBE268692AAD
:100C1000E0DC627812011A43D2B2124B9A70E26899
:100C20001202120A1A61A2681202120A5A61227C86
:100C3000DA700F221A710E4A12681105890E12021B
:100C4000FC20800102400A431A6262691202120A01
:100C50009A61A2691202120ADA610020BAE7C0465C
:100C600000080040003000401D260000AD250000B7
:100C70003060800010B500230370437083700371EF
:100C8000C36083600374064B1B68064A146819012D
:100C9000090A81611B0B0F2222401343436110BDDF
:100CA00030608000346080001F4B9A79D2B20123FB
:100CB0001340910701D502210B43510701D50421AF
:100CC0000B43120701D5082213430522DB0701D489
:100CD00010007047144BDB790E32DB07F8D4124B4F
:100CE000DB681A0202D5FF22120613435B4203603F
:100CF0000D4A012393719279D2B21340910701D525
:100D000002210B43510701D504210B43120701D5E2
:100D1000082213439B0704D50222034B9A711C320D
:100D2000D6E70022D4E7C04600300040F0B5C64602
:100D300000B5144B1F68144B9E79F6B2DB681A029B
:100D400002D5FF22120613433A695B421360002466
:100D500001250D4B984602E00134042C0FD0E0B27F
:100D60003300E3401D42F7D02B00A340DBB24246E4
:100D70009371A300FB58002BEED09847ECE704BC1E
:100D80009046F0BD7404002000300040F0B5C64627
:100D900000B580000E4BC7583B68DE6ABB6B7A6BB0
:100DA00013401E4000240B4B984602E00434302CC4
:100DB0000AD04346E5583542F8D03B195B68380005
:100DC00098473B68DD62F1E704BC9046F0BDC04641
:100DD00078040020C050000010B50020014B984757
:100DE00010BDC0468D0D000010B50120014B984785
:100DF00010BDC0468D0D000010B50220014B984774
:100E000010BDC0468D0D000000238360036041606B
:100E10000020704708600A4B1A69002A02D1196144
:100E200004E01A009368002BFBD19160054B1B680E
:100E3000DB0503D480225200024B1A600020704769
:100E40000000002000E100E010B5012904D01723C4
:100E500000290AD0180010BD00780F31074B9847C1
:100E60008423DB0558610023F4E70078034B98479F
:100E70008423DB0558610023ECE7C0462D0F0000FA
:100E800010B50300012903D00020002906D010BDB1
:100E900000780F31074B9847030003E01878054BA3
:100EA00098470300044A90681840431E9841C0B216
:100EB000EDE7C0462D0F00000000002010B501290D
:100EC00004D01723002906D0180010BD00780F3178
:100ED000054B984702E00078034B9847034BDA68CC
:100EE0001043D8600023EFE72D0F00000000002022
:100EF00010B50C4B1C698421C9058A6998680243A6
:100F00009A60094B8B61002C05D020686368984774
:100F1000A468002CF9D1034BD9689A688A439A6077
:100F200010BDC04600000020FF0FFF0F0918012070
:100F3000884070470649CB6901221343CB61842363
:100F4000DB051A7019000B781342FCD17047C046BC
:100F50000008004001230370002343708370C370B6
:100F6000037143717047000070B582B005000E0038
:100F7000254B9847254B1B68DA070ED55B080124E3
:100F800001221A420AD05B080134E4B20C2CF8D1D9
:100F90001F4B9847142002B070BD00241B4A1168F3
:100FA0000123A3400B4313601379013B1371184BCA
:100FB00098471420FF2CEED02C707378022B0AD0A7
:100FC00001A9F3780B700634E4B22000114B984766
:100FD0002000114B9847B2787F2313403279920357
:100FE00013437279D203134372781202C02189002D
:100FF0000A40134332789202C02109010A40134388
:101000006B600020C7E7C0465510000000000020BC
:10101000951000001D260000AD2500008423DB058F
:10102000DB6802781032012090401840431E98413E
:10103000C0B27047027801321F2313408422D205C8
:10104000203189008B500378416808339B00995008
:10105000002070470C4B1B68002B06D1EFF3108368
:10106000002B07D00022094B1A70074A136801337E
:101070001360704772B6BFF35F8F0022044B1A7083
:101080000132024B1A70F0E7B4000020B8000020D3
:1010900014000020084B1A68013A1A601B68002BE4
:1010A00009D1064B1B78002B05D00122044B1A7086
:1010B000BFF35F8F62B67047B4000020B800002015
:1010C00014000020F0B583B001AC01256570002745
:1010D000A770257021000F20064EB0478022120213
:1010E0008223DB059A612770657021001C20B047C0
:1010F00003B0F0BDDD15000003680A4A934203D037
:10110000094A934207D07047084A116980235B005F
:101110000B431361F7E7054A116980239B000B43DA
:101120001361F0E7001C004200200042000800406C
:1011300070B50C0015000160A34B9847A34B00222B
:101140001A702A781A70A24B9C4200D1C6E0A14BBB
:101150009C4200D1FDE0A36902221343A361002356
:10116000BC22A3500C32A3509B4BE3619B4BE3602A
:10117000AB7B002B04D0E26880231B041343E360A5
:101180006B78002B03D0A36840221343A3606269ED
:10119000AB7813436361EB78002B04D0A269802302
:1011A000DB011343A3612B79002B04D0A2698023B8
:1011B0009B011343A3616B79002B04D0A2698023A8
:1011C0005B011343A361AB79002B03D1A3694022D8
:1011D0001343A361EB79002B03D0A36910221343BF
:1011E000A3612B7A002B03D0A36908221343A361C8
:1011F0006B7A1B04F0221203134001221343236273
:101200002B7B6A7B13436A8912041343A362EB7B33
:101210001B02FE22D2011340297C7F220A40134385
:10122000A3646A7C120130231340A97C89000C223C
:101230000A4013438022A350EB7C002B03D0A35819
:1012400002210B43A3502B7D002B04D08022A358F6
:1012500001210B43A3509023AA69E2502B7F002B5E
:1012600005D0A022A15880231B060B43A350A02227
:10127000A1586B7F1B06FE20C00503400B43A35003
:10128000AB7F002B05D01032A15880231B060B43E7
:10129000A350B022A158EB7F1B06FE20C0050340DF
:1012A0000B43A3502023EB5C002B05D01032A15838
:1012B0008023DB050B43A350F022A1582123EB5CD4
:1012C0001B06FC20800503400B43A3500323E3656A
:1012D000043B103AA3500432A35070BD3B491A207E
:1012E0003F4B98471A203F4B9847394B9A69022148
:1012F0000A439A613C4A1204120C8021C9020A4333
:1013000084201A50394A1204120C802080020243B1
:1013100088201A50364A1204120C0A4318301A5008
:10132000344A1204120C0A4310301A50324A120482
:10133000120C04381A50314A1204120C304802437D
:10134000C0201A502F4A1204120C1143F022995057
:1013500005E71E491B20224B98471B20214B98472D
:101360001C4B9A6902210A439A61274A1204120C03
:101370008021C9020A4384201A50244A1204120C04
:1013800080208002024388201A50214A1204120C45
:101390000A4318301A501F4A1204120C0A43103024
:1013A0001A501D4A1204120C04381A501B4A120417
:1013B000120C13480243C0201A50194A1204120C8E
:1013C0001143F0229950CAE6F9100000840400206D
:1013D000001C004200200042030A0506330A0000F8
:1013E0001D260000AD2500008C010020FC0000201F
:1013F0000C0100204C010020BC0000209C010020BA
:1014000000000202DC010020CC0200203C0200208F
:101410004C0200208C020020FC010020DC02002095
:101420001C0300200268936901218B4393610168CA
:1014300001228B691A42FCD17047000010B5036885
:101440000948834204D0094C1720A34206D010BD9E
:1014500009689200064BD1500020F8E70968920015
:10146000044BD1500020F2E7001C00420020004253
:101470008C010020CC02002070B50D0003680D4CDB
:10148000A34204D00C4C1720A34209D070BD120116
:101490000A49891810222800094B98470020F5E7CF
:1014A00012010849891810222800054B984700208E
:1014B000ECE7C046001C004200200042BC000020B7
:1014C000913E0000FC01002070B50D0003680D4C3A
:1014D000A34204D00C4C1720A34209D070BD1201C6
:1014E0000A49891810222800094B98470020F5E77F
:1014F00012010849891810222800054B984700203E
:10150000ECE7C046001C0042002000420C01002015
:10151000913E00004C02002070B50D0003680D4C98
:10152000A34204D00C4C1720A34209D070BD120175
:101530000A49891810222800094B98470020F5E72E
:1015400012010849891810222800054B98470020ED
:10155000ECE7C046001C0042002000424C01002085
:10156000913E00008C02002010B5036817488342AA
:1015700004D0174C1720A34214D010BD0B68154897
:10158000120113504C6883185C600B00083308325A
:101590008218103118781070013301328B42F9D162
:1015A0000020EAE70B680C48120113504C688318BE
:1015B0005C600B0008330832821810311878107004
:1015C000013301328B42F9D10020D6E7001C0042E2
:1015D000002000429C010020DC02002000B583B006
:1015E00001AB80221A700A785A704A789A708A7809
:1015F000DA701900014B984703B000BD19270000AD
:1016000010B5490840230024814202D2180010BDC1
:101610001C00091A631C9BB28842F9D94023FF2C95
:10162000F4D814800023F1E7F0B5DE4657464E4665
:101630004546E0B589B00C00059212AA1178050064
:101640004D434022A54207D9100009B03CBC90464A
:101650009946A246AB46F0BD002B55D102000800CA
:101660000021634DA847834626000027002300245D
:1016700000930194002200233F2020218C461F3933
:101680000296039714E06446241A0D00E540A8462C
:1016900015E0029C039D121BAB414D46009E019F2D
:1016A00035433C00464634430095019401381DD330
:1016B000202464420419E6D40D00A540A8460C007D
:1016C0008440A14692185B4114001D0046465F46C7
:1016D0003E4203D00E00264332002B00029C039DA5
:1016E0009D42E3D8D5D19442E0D8D2E7002201232D
:1016F00000980199121A8B411900130C0A041A431D
:10170000059B1A8000229FE70022012BF8D1630F6E
:101710000493E30098460A0000230021344CA047BC
:1017200004000D0000239C46069320339B460126AF
:101730006346079348E05946C91B3000C8408246BB
:1017400010E000980199121A8B4102994846014312
:101750000291013F25D3202149427918EBD4300072
:10176000884082463100B940894692185B4110009A
:10177000190044464D462C40A4465446049D2C4036
:10178000A246644655462C4303D03400044322004D
:101790000B00009801999942DBD8D2D19042D8D859
:1017A000CFE7009C019D0299079A8B1ADB0811492B
:1017B0008B4214D9069B0133DBB219000693130048
:1017C00001330793082908D0002302930022002345
:1017D0003F21009401950F00BDE7402234E74022ED
:1017E0000699082900D12FE74A031A4388E7C04623
:1017F000213C0000FF1F000010B582B004000E4B1A
:101800001B78002B07D0002905D10B4B5B78834256
:1018100010D01D200CE001A90C701220074B984736
:101820001220074B9847044B5C7001221A7000206D
:1018300002B010BD0020FBE73C0300201D26000085
:10184000AD250000404B984231D00AD93F4B984219
:101850004DD03F4B98425AD03E4B984237D0002053
:1018600070473D4B98420CD03C4B9842F7D1012930
:1018700017D000295DD0022915D0032915D00020EA
:10188000EEE7012907D0002951D0022905D003290C
:1018900005D00020E4E73248E2E73248E0E732488A
:1018A000DEE73248DCE73248DAE73248D8E7012998
:1018B00007D000293FD0022905D0032905D00020F8
:1018C000CEE72D48CCE72D48CAE72D48C8E70129C7
:1018D00007D0002931D0022905D0032905D00020E6
:1018E000BEE72848BCE72848BAE72848B8E70129F6
:1018F00007D0002923D0022905D0032905D00020D4
:10190000AEE72348ACE72348AAE72348A8E7012924
:1019100007D0002915D0022905D0032905D00020C1
:101920009EE71E489CE71E489AE71E4898E71E4817
:1019300096E71E4894E71E4892E71E4890E71E4827
:101940008EE71E488CE7C046000C0042001400429F
:10195000001800420010004200040042000800424B
:101960000300050003000600030007000200110049
:10197000020012000200130002000D0002000E001F
:1019800002000F00020017000200180002001900F8
:101990000300290003002A0003002B00030023009A
:1019A00003002000030021000300040002001000D7
:1019B00002000C00020016000300280003002200B1
:1019C00030B587B00B4B6A4632CB32C232CB32C213
:1019D000009B83420BD001239A00694652588242F1
:1019E00006D00133062BF7D1002007B030BD00230D
:1019F000D8B2FAE7F050000070470000F0B50A4B8B
:101A00001B78002B0CD1094F094E0A4D0024DE51E2
:101A10005A1914600433182BF9D10122024B1A70A1
:101A20008000024BC150F0BD3E0300204003002067
:101A3000F91900008804002000B583B009236A4624
:101A4000137001335370013393700133D37001333A
:101A5000137101335371034B98476B46185603B00B
:101A600000BDC046C119000010B5024B1B68002024
:101A7000984710BD4003002010B5024B5B68012061
:101A8000984710BD4003002010B5024B9B68022010
:101A9000984710BD4003002010B5024BDB680320BF
:101AA000984710BD4003002010B5024B1B6904206D
:101AB000984710BD4003002010B5024B5B6905201C
:101AC000984710BD40030020F0B5DE4657464E460D
:101AD0004546E0B591B005000C00160029600800ED
:101AE000D44B984705280DD00700133722680523EB
:101AF000D20709D5180011B03CBC90469946A246C1
:101B0000AB46F0BD1927F1E7226817339207F1D4ED
:101B1000C94AD16901301B3B83400B43D3610FA9F4
:101B200035239846F35C0B70FFB23800C34B9847DF
:101B30003800C34B98474346F05C0021C14B98479F
:101B4000F37A6B712C23F35CAB712D23F35CEB7197
:101B5000F37E2B722423F35C6B722B6802931800C4
:101B6000B44B9847133000220E2306A98C466344D9
:101B70001A80338A98468023DB01984500D1C3E060
:101B80000ED9C023DB01984500D1B8E080231B02A9
:101B9000984500D048E1032306930023079308E00B
:101BA00080239B01984500D03EE1102306930F3B14
:101BB000079333680593F3689B4673690393337EF9
:101BC00004932E23F35C9A4673689946002B00D148
:101BD000C7E080235B05994500D1AAE0737E002B06
:101BE00002D0B37E029A93732A68029FD369002BB6
:101BF000FCD102970E3306A98C4663441B88BB8137
:101C0000059A5B461A43039B1A434B461A434346C5
:101C10001A43049B1B021A4353465B071A432F23A4
:101C2000F35C002B01D104331A43737E9B02242101
:101C3000715C49020B432621715C09020B432C2184
:101C4000715C49040B432D21715C09040B43F17A4B
:101C500019438C463389FF2B00D1A8E08021490429
:101C60000A43614619438C46029FBB68318C708CD5
:101C70000143072018400143B960F369002B02D0EB
:101C800071490A401A433423F35C002B03D16F4B94
:101C90009B789B0701D580231A432968029FCB6953
:101CA000002BFCD163467B602968CB69002BFCD1FB
:101CB0003A603B68F02212051340E022D2049342BE
:101CC0000AD0BB6807229343BB60BA682523F15C46
:101CD0001E3B0B401343BB600EAB80221A700022E8
:101CE0005A70DA709A70B36B0A93F36B0B93336C80
:101CF0000C93736C02930D9300270AAE66E00823E1
:101D00000693073B079354E733680593F3689B46B4
:101D100073690393337E04932E23F35C9A467368AE
:101D20009946002B19D080235B05994501D00023EB
:101D300027E02F23F35C002B00D04FE7B36A1F008E
:101D4000C0B2434B984701000E2206AB9C4662444A
:101D50003800404B9847030013E008230693002304
:101D600007932F23F35C002B0FD0069B0093079B58
:101D70000E2206A98C466244316BB06A364FB847D2
:101D80000300002B00D0B5E628E7B36A1F00C0B2FD
:101D90002F4B98470100069B0093079B0E2206A835
:101DA0008446624438002C4FB8470300E9E7F37ECD
:101DB000002B00D158E78023DB041A4354E72000AE
:101DC000264B984707E00137042F0DD0F9B2BB002E
:101DD00098590028F3D0431CF5D00EA90870000CC8
:101DE000C0B21F4B9847EEE70023EB602B616B619D
:101DF000AB61EB612B62AB626B620022EB85AB8562
:101E00003033EA540133EA540133EA540133EA54DB
:101E10002868084B984704001249134B9847A400C0
:101E2000124BE550002365E6102306930023079329
:101E3000BFE6C046C1190000000800401D26000092
:101E4000AD250000F9170000FFFFFFF00020004162
:101E50004126000001160000291600004518000068
:101E6000192700000D1F0000FD1900008804002044
:101E7000C2791C23002A01D118007047C28D92B28A
:101E8000173B002AF8D10368DA69002AFCD11985CA
:101E900002211A7E0A42FCD00023EDE782791C233E
:101EA000002A01D118007047828D92B2173B002A98
:101EB000F8D10268107E4007F4D5D369002BFCD11D
:101EC000538BDBB258061DD0980703D502235383EA
:101ED0001833E7E7580703D5042353831A33E1E7A0
:101EE000D80703D5012353831233DBE7D80603D584
:101EF000102353833233D5E79B0603D52023538326
:101F00002133CFE7138D0B800023CBE7F8B580009A
:101F1000644BC5582C68E369002BFCD1237EA67D59
:101F20001E403023EB5C3122AF5C1F40F30722D50B
:101F3000EB8D9BB2002B1CD0AA6A1378DBB2511C2C
:101F4000A962697901290ED09BB2DB05DB0D2385DF
:101F5000EB8D013B9BB2EB85002B0CD1013323753C
:101F60000133A37507E0517809020B430232AA62DC
:101F7000EBE701232375B30706D50223237500225F
:101F80003133EA54FB071ED4730768D5AB8D9BB27F
:101F9000002B62D0638BDBB21A0718D47F22134068
:101FA0005A0601D540229343002B33D09A0711D50E
:101FB0001A223223EA54303B63837B074FD5280033
:101FC0006B6998474BE02800EB689847DCE777227D
:101FD0001340E5E75A0705D51E223223EA542E3B6B
:101FE0006383EAE7DA0705D513223223EA54313B4B
:101FF0006383E2E7DA0605D542223223EA54223B24
:102000006383DAE79B06D8D541223223EA54123B98
:102010006383D2E7238DDB05DB0DDAB2696A0A70D0
:102020006A6A511C69626979012910D0AB8D013B44
:102030009BB2AB85002B12D10433237500222E33C3
:10204000EA54BB070BD528002B69984707E01B0A09
:1020500053706B6A01336B62E8E704232375F30660
:1020600004D5102323752376FB060ED4B30604D5BE
:102070002023237523763B070BD4330704D508238D
:1020800023752376BB0608D4F8BD2800EB69984772
:10209000ECE72800AB699847EFE72B6A28009847E0
:1020A000F2E7C0468804002010B5072803D8800056
:1020B0000F4B1B589F46002018E00E4B586815E048
:1020C0000D4B597D0907090F01310C480C4B9847FE
:1020D0000CE0084B986809E0074B1B7F00209B072A
:1020E00004D5044B186801E08020000210BDC046F2
:1020F000085100005803002000100040006CDC0272
:10210000C93A0000F0B5DE4657464E464546E0B5B2
:10211000254A938A457801784C424C41A146817802
:102120008C46C1788846467A077A817A8B461F4961
:1021300044688C60C17A8900847B64002143447BBD
:102140002143C9B29175017BD175012148468000B8
:102150000424A343034340460840C0000434A3437F
:1021600003436046084000010834A34303430F4083
:10217000BF01402083433B430E40F6014030834380
:102180003343793805402D02094803402B43584614
:1021900001400903074803400B4393823CBC90462F
:1021A0009946A246AB46F0BD0014004058030020FB
:1021B000FFF8FFFFFFEFFFFF70B50400C368027D6B
:1021C000012A4ED0A26810011900294B98470F220E
:1021D000024003092178C9016578AD012943C9B2DC
:1021E000244D29771104013B1B051B0D0B432B626A
:1021F0002E002C250421735D0B42FCD1A3781B0318
:10220000E178C9000B43217989000B43A17C0325A8
:1022100029400B43218A0904174E31400B43E17CCE
:102220000902E026F60031400B43267D36013021BD
:1022300031400B430F494B62637D1D402823CD5431
:102240000E002C250821735D0B42FCD10F2398430F
:102250008218E3685A43637D0433DA40074B1A60FF
:1022600070BD018A1800024B98470300AAE7C046D8
:10227000C93A0000001000400000FF07580300208A
:10228000072803D88000184B1B589F46172029E0C9
:10229000164A137D02210B431375002022E0144AD5
:1022A000936902210B43936100201BE00F4A138ABC
:1022B00002210B431382002014E00D4A938A02216D
:1022C0000B43938200200DE0084A137F02210B4349
:1022D000137710002A310222435C1342FCD1002004
:1022E00000E000207047C046285100000010004068
:1022F00000140040F0B5C64600B58EB003223F4B37
:102300009A603F4A53681E218B4318390B43536030
:102310000AA8002303708022120242608370012207
:10232000C2708372C3720373437383730239417043
:1023300043720272334B98470520334B9847334919
:102340000122CB681A42FCD0314B1A7D80210A430E
:102350001A7502225A751A009369002BFCD12D4B75
:10236000984701AD0126029600246C706C7205231B
:102370002B702E7229000120274B98469847012088
:10238000264FB8476E606C702C726C7207232B70EE
:1023900029000820C0470820B84704A88470C470EA
:1023A00004711F4B836006824475C4748474047086
:1023B0000123437004751B4BC3601B4B98470720D8
:1023C000114B9847124830210322435C1340032BE2
:1023D000FBD1023B154A137101A94B6000224A70E0
:1023E0004A7207320A700B7200200B4B984700208C
:1023F0000A4B98470EB004BC9046F0BD0018004050
:10240000004000410521000081220000001400402E
:102410000010004031240000552400000125000078
:10242000006CDC02FF7F0000B921000000080040C2
:10243000064A536980210B4353610122044B1A70F1
:1024400019000B781342FCD17047C04600080040C9
:10245000001C004070B504000D784B78002B02D0B2
:102460008023DB001D434B7A002B02D080231B010D
:102470001D43486801280FD9431E184231D1022854
:102480002DD90223002201325B009842FBD8802321
:102490005B011D43120415430B7A002B02D08023ED
:1024A0009B011D430426A6401149124A4B68134064
:1024B0001E42FBD1104B9847A4000D4B9C46644430
:1024C000226A80235B001A402A4322626146094A3D
:1024D0004B6813401E42FBD1084B984770BD002249
:1024E000D5E7000480239B0018430543D4E7C0468A
:1024F000001C0040FC070000551000009510000073
:1025000010B504000422824009480A4943680B4080
:102510001A42FBD1084B9847A400054B9C466444E3
:10252000226A80235B0013432362044B984710BD4B
:10253000001C0040FC070000551000009510000032
:10254000F8B50400042282401248134943680B4046
:102550001A42FBD1114B98470E4F0834A400E059A2
:102560004007400F0E4B98470600E559ED04ED0F6C
:10257000E459240C0B4B9847002D07D1012C07D9A7
:1025800021003000084B9847060001E00134E64086
:102590003000F8BD001C0040FC0700005510000092
:1025A000A920000095100000C93A000010B50400F1
:1025B000094B9847A000094B9C46604480228358F1
:1025C00040210B4383504031403A43581A42FCD0DB
:1025D000034B984710BDC04655100000001C00403A
:1025E0009510000010B50400094B9847A000094B56
:1025F0009C4660448022835840218B438350403165
:10260000403A43581A42FCD1034B984710BDC0468C
:1026100055100000001C00409510000070B504002B
:102620000D00054B98472A780F2313402034A4004F
:10263000024AA35070BDC046E5250000001C0040C2
:1026400010B50400064B98472034A400054BE4580D
:102650002407240F044B98472000044B984710BDD3
:1026600055100000001C004095100000412500009E
:1026700030B5D378002B35D11378802B29D01B06A9
:1026800080246402234354780225AC4306D1947815
:10269000002C20D18024A402234341605478013CC3
:1026A000012C1CD90D042D0CA024E4052C431C4343
:1026B00084620D0CD02424062C431C438462D478FD
:1026C000002C22D15B031CD59378012B1ED04161D5
:1026D00017E00023D7E7C024E4022343DDE70D4CD5
:1026E0002340DFE741600C04240CA023DB052343D7
:1026F00083620C0CD0231B0623438362D378002B08
:1027000003D15378013B012B02D930BD8161F8E739
:102710008160FAE7FFFFFBFF10B50A00C109002343
:10272000002905D14309DB018221C9058C46634498
:102730001F242040012181401800014B984710BD03
:10274000712600007047000010B5054B9847054BF7
:102750009847054B9847054B9847054B984710BD40
:10276000F5220000C5100000350F000045270000CD
:1027700045270000FEE7000010B5174A174B9A42A4
:1027800011D01A00164B9A420DD2164A03339B1AE7
:102790009B0801339B00002210480F498C5884503D
:1027A00004329A42FAD1104A104B9A420AD2D343C9
:1027B0000E495B1803218B4304339B18002102C28E
:1027C0009342FCD10A4AFF210A4B8B4393600A4B88
:1027D00098470A4B9847FEE7F0520000000000209F
:1027E00094000020040000209800002038050020FC
:1027F00000ED00E000000000493E0000AD370000A1
:10280000F0B5C64600B50C00904600280FD1002A4E
:1028100011DD8F18094E0A4D306821002B6898474A
:102820000134BC42F8D1404604BC9046F0BD0123BF
:102830005B429846F7E78046F5E7C046A8040020CB
:10284000A0040020F0B5C64600B50E001500013802
:10285000022810D8002A11D000240C4B98460C4FA7
:1028600043461868315D3B689847002808DB01340F
:10287000A542F5D106E00124644203E0140001E022
:1028800001246442200004BC9046F0BDA80400204E
:10289000A40400200300064A1268002A04D0044A57
:1028A0001068C318136070470249014A1160F6E7C7
:1028B0006403002038250020012040427047802317
:1028C0009B014B600020704701207047002070473B
:1028D0007047000010B584B00023009388231B04C8
:1028E0000193009B8004124C204018430090019BF0
:1028F0000F20104000040F4C234003430193002A93
:1029000007D0002318006844CC5C047201339A425B
:10291000F8D1094C002269462000084B98472368EB
:102920009A69920702D40121D022995004B010BDB7
:102930000000FC1FFFFFF0FF84030020691500006A
:1029400030B589B006A91B481B4B98471B4B012289
:102950001A701B48028812095A701A4C22881209F0
:102960009A70194A1288120ADA70184A12781A7183
:10297000174A1278520017490D78012129400A435D
:102980005A7100230380238001AB04221A70023A9B
:102990005A700023094801AAD218195C91700133BA
:1029A000062BF8D1082201A90B480C4B984709B017
:1029B00030BDC046AC040020D509000070030020E3
:1029C000680300206C03002012050020BD030020D6
:1029D00080030020C403002069040000D528000003
:1029E00010B588B006AC21001348144B9847E28814
:1029F000134B110A19705A7062799A702279DA7041
:102A0000A2781A7162785A7122789A7101AB1122F8
:102A10001A700A3A5A700023094801AAD218195CA0
:102A200091700133102BF8D1082201A90548064BFB
:102A3000984708B010BDC046AC040020D50900007E
:102A40004004002069040000D528000000B583B0D0
:102A500000236A46D3700B4B197809025A78521832
:102A60006946CA809A784A71DA780A711A798A7046
:102A70005A794A709B790B700348044B984703B00E
:102A800000BDC046C8030020AC040020B50900000A
:102A900070B582B005000E0000226B46DA80064C4D
:102AA0006B46991D2800A0470028F9D16B460633D4
:102AB0001B88337002B070BD9D1E000070B505000C
:102AC0008CB2034E21002800B0470028FAD170BD17
:102AD000711E000070B5074C0023A37063700133B2
:102AE000237021001420044DA84721001520A84779
:102AF00070BDC046EC040020DD15000030B58DB07F
:102B000001AC2000194B9847002323700333A370B6
:102B1000637005332371C0235B01E3800423637575
:102B2000134D220013492800134B98472C68238C1F
:102B30009BB2002BFBD12000104B9847104B1B5C25
:102B40001F221A40012393400E4A1360072323716A
:102B5000A3712378022213432370054B1A68138C48
:102B60009BB2002BFBD10DB030BDC046410100002F
:102B70001405002000480042850100001D010000EE
:102B80004851000000E100E000B583B06846054B05
:102B9000984740236A46137003490448044B9847FA
:102BA00003B000BD6D07000000540042FC0400208B
:102BB0008107000010B582B001A8084B9847084C67
:102BC00001AA00212000074B984700212000064B56
:102BD00098472000054B984702B010BD81080000BF
:102BE000FC0400208308000085080000390800006C
:102BF00070B5244B19680B8C9BB2002BFBD10B8951
:102C00001F229343143A13430B810B8C9BB2002B6E
:102C1000FBD10B8C9BB2002BFBD10B7E022213430A
:102C20000B760B8C9BB2002BFBD1012404260225D2
:102C300001E014420AD18B79DBB222001A401E4215
:102C400000D02A431D42F4D03243F2E78D8CADB25E
:102C500001228A718C79E4B22240630701D50223F4
:102C60001A43A30701D504231A43530701D50223AE
:102C70008B71054B6B431B139BB2984280414042C2
:102C800070BDC046140500208813000070B5704B5D
:102C90001B681A8C92B2002AFBD11A891F218A4321
:102CA0001B390A431A811A8C92B2002AFBD11A8C62
:102CB00092B2002AFBD11A7E02210A431A761A8C9C
:102CC00092B2002AFBD101200425022401E008422F
:102CD0000AD19A79D2B201001140154200D02143A5
:102CE0001442F4D02943F2E7998C5A4A1180012208
:102CF0009A719979C9B20A40480701D50220024366
:102D0000890701D504210A43520701D502229A718D
:102D10001A8C92B2002AFBD11A891F218A431A39D0
:102D20000A431A811A8C92B2002AFBD11A8C92B2F1
:102D3000002AFBD11A7E02210A431A761A8C92B21B
:102D4000002AFBD101200425022401E008420AD117
:102D50009A79D2B201001140154200D021431442A9
:102D6000F4D02943F2E7988C80B23B4A10800122CC
:102D70009A719979C9B20A404C0701D502242243BD
:102D8000890701D504210A43520701D502229A710D
:102D900032490A6801320A60314C324A42435013C8
:102DA000D1172568666840197141206061601A8CEE
:102DB00092B2002AFBD11A891F218A4315390A438E
:102DC0001A811A8C92B2002AFBD11A8C92B2002A74
:102DD000FBD11A7E02210A431A761A8C92B2002A7B
:102DE000FBD101200425022401E008420AD19A798E
:102DF000D2B201001140154200D021431442F4D058
:102E00002943F2E7988C80B2174A108001229A7108
:102E10009979C9B20A404C0701D502242243890797
:102E200001D504210A43520701D502229A710F4AA3
:102E30001368013313600E4C0A4941434A13CB1700
:102E40002068616812184B412260636070BDC04603
:102E500014050020E804002010050020C003002015
:102E60005004002088130000040500200004002006
:102E700058040020174B1B78012B0ED0164B1B88D3
:102E8000FF2B20D80023154A1370134A1380012208
:102E9000134B1A70114B18787047124B1B88FF2B7D
:102EA0000AD81F2BF6D800230C4A13700D4A138042
:102EB00001220D4B1A70EDE70122084B1A70002217
:102EC000094B1A70E6E70222044B1A700022044BE9
:102ED0001A70DFE7C4030020E8040020800300200C
:102EE000BC03002010050020FC03002010B527487B
:102EF000274B9847274C2070274B98472378012B66
:102F00000ED0802292038223DB055A61214B1B786D
:102F1000002B2CD0802252038223DB055A6110BD86
:102F20001E4B1868642358431D4B19681D4B984766
:102F300040B21D4B18701D4B1B881D4A12889342CE
:102F40001BD95F280ADC9B1A1A4A5A43D3171B0560
:102F50001B0D9B181B13184A934210D91748184B86
:102F60009847802292038223DB055A61CEE78022B4
:102F700052038223DB059A61D1E75F28EEDC8022D1
:102F800092038223DB059A61C4E7C0466810000003
:102F9000F12B0000C40300208D2C0000F80300205A
:102FA00018000020C93A0000BD030020E8040020FA
:102FB000100500208813000067100000C8510000B1
:102FC000A93F000010B5040001210D4B98470028CF
:102FD00000D110BD0B4B98470B4B98470B4B9847B4
:102FE0000B4B18700B4B1B78834204D001220A4B09
:102FF0001A70084B187001212000084B9847E8E729
:10300000810E0000ED2E00008D2C0000752E0000BA
:103010008103002082030020F6030020BD0E000083
:10302000124B1978124A11705978124A1170997816
:10303000114B197000290AD00C48C31C0F4A0331E8
:10304000401819781170013301328342F9D1074BCE
:103050001900143100221A7001338B42FBD1002277
:10306000074B1A700132074B1A707047E0030020BB
:10307000F5030020DD030020DC030020C80300204E
:1030800083030020F403002010B50122114B1A70B5
:103090000022114B1A70114B1B78012B0BD0022B05
:1030A00010D000230D4A13700D4A13700D4A13708F
:1030B000084A137010BD0A4B1B789B000A4A9B58A4
:1030C0009847EEE7064B1B789B00084A9B589847A9
:1030D000E7E7C0463C040020F4030020F50300208D
:1030E000DD030020DC0300201C000020280000205D
:1030F00070B50400454B1B78012B56D0444B1A6821
:10310000002A1FD0434D002328686968424EB0470B
:1031100080B2424B1880002200232A606B603C4B37
:103120001A603F4B1B88C31A14339BB2282B04D957
:1031300001323C4B1A703A4B18803B4B60431A6883
:10314000101A1860384B1C68E343DB171C40364BE1
:103150001C6064206043354B1968354B984742B278
:10316000344B1A7021003448344B9847344B1B8839
:10317000344A128893423ED99B1A334A5A43D31792
:103180001B051B0D9B181B132A4A127852B25F2A8B
:1031900002DC2E4A934233D92D482E4B9847802289
:1031A00092038223DB055A6170BD2B4B1A68002AFB
:1031B000A4D02A4D002328686968174EB04780B212
:1031C000274B1880002200232A606B60224B1A6074
:1031D000244B1B88C31A14339BB2282B04D9013209
:1031E000104B1A701F4B18800F4B60431A6894469F
:1031F00060441860A6E70F4B1B785BB25F2BCBDCFB
:10320000802292038223DB059A61CDE7C40300206C
:103210000004002058040020E13B00006C03002063
:103220006E030020F6030020F803002018000020A1
:10323000C93A0000BD0300204C510000B53E00001B
:10324000E80400201005002088130000671000002B
:1032500078510000A93F0000C00300205004002066
:10326000680300206A03002070B582B00023019338
:10327000314A537801210B4353709368002BFCD1E2
:103280002E4C01A8A0470028FBD12D4B1B78012B09
:103290001DD02C4C0123237220780130C0B22A4D5E
:1032A0003C21A847C8B220700521A847C9B200290F
:1032B00002D10122224B1A70244A13780133137071
:1032C000002220492248234B984702B070BD0122BA
:1032D0001E4B1A70204B98470520204B9847204BD7
:1032E0001B78012B16D01F4B1A881F4C62431213F8
:1032F0001E4D29681E481F4EB04729684B1C2B6085
:103300001D4B1A88624312131C48B04700220C4B15
:103310001A70BEE7134B1A88134C62431213134EF4
:1033200031681348134DA847154B1A88624312138E
:1033300031681448A847E9E700300040A90C0000B4
:10334000F6030020F0040020D53B000024000020FC
:10335000AC040020ED09000041290000F13000001C
:10336000C4030020E8040020881300004804002063
:10337000F0510000B53E0000040500201852000086
:10338000100500200452000070B584B06C4B1B681F
:103390001A6D0392039A120350D5802212031A6504
:1033A00000230293029B032B48D8654E3500654CE1
:1033B00029E09C232968CB58203A012191400B40F9
:1033C0005A1E9341DBB22AE05D4A1168203B01227C
:1033D0009A4013009C228B50019A210058485A4B66
:1033E0009847236800230293029B072B05D8029B72
:1033F00001330293029B072BF9D9029B01330293FD
:10340000029B032B1AD8029A1F2AD2D8982331681C
:10341000CB58012191400B405A1E9341DBB2002B47
:10342000EBD0029B0193029B1F2BCDD8444A11681D
:1034300001229A40130098228B50CDE7039BDB07B3
:103440000FD4039BDB064AD4039B1B0102D4039BCE
:10345000DB0004D53A4B1B68C02252051A6504B044
:1034600070BD374D2B6801221A65384C22683849E7
:103470002800384B9847226829683F231340A82228
:103480008B502368013323602368042B0FD0304B0B
:103490005B689B020FD500230293029B072BD0D8B9
:1034A000029B01330293029B072BF9D9C9E7002243
:1034B000264B1A60EBE700230293254B5B681B0346
:1034C0001B0F029A9342BCD92149029B01330293FC
:1034D0004B681B031B0F029A9342F6D8B1E7184DB5
:1034E0002B6810221A651C4C22681C4928001C4BB2
:1034F0009847226829683F231340A8228B502368ED
:10350000013323602368042B15D000230293029B10
:10351000072B0CD813481149029A029BCB181B7A2F
:103520008354029B01330293029B072BF4D901229F
:103530000D4B1A7088E70022074B1A60E5E7C0467A
:1035400084030020080400207914000038040020BF
:1035500018040020C91400000404002028040020DE
:1035600019150000E00300208303002030B589B066
:1035700003AAB0231B01138000239370FA21C90012
:10358000918001249471D372D47013725372937228
:1035900014735473FC23DB00D3811474144D154948
:1035A0002800154B98476B465C722D681A78531E9D
:1035B0009A41D2036B465B78002B02D080235B00DC
:1035C0001A4300230124FF20190069448978002947
:1035D00003D02100994001400A430133082BF3D165
:1035E0006B681A436A600248044B984709B030BDC3
:1035F000AC04002000240040310A0000B1080000A3
:1036000010B5054C082205492000054B98470821B4
:103610002000044B984710BDAC0400206932000024
:10362000AD0A0000CD0A000000B589B001A8074B23
:10363000984701A8064B9847064A137802210B4386
:1036400013709368002BFCD109B000BD750C00000D
:10365000B90B00000030004070B54C4B1B681A8C51
:1036600092B2002AFBD11A891F218A431B390A43CF
:103670001A811A8C92B2002AFBD11A8C92B2002ABB
:10368000FBD11A7E02210A431A761A8C92B2002AC2
:10369000FBD101200425022401E008420AD19A79D5
:1036A000D2B201001140154200D021431442F4D09F
:1036B0002943F2E79C8CA4B2354A148001229A7106
:1036C0009979C9B20A40480701D502200243890707
:1036D00001D504210A43520701D502229A711A8C9E
:1036E00092B2002AFBD11A891F218A431A390A4350
:1036F0001A811A8C92B2002AFBD11A8C92B2002A3B
:10370000FBD11A7E02210A431A761A8C92B2002A41
:10371000FBD101200426022501E008420AD19A7952
:10372000D2B201001140164200D029431542F4D014
:103730003143F2E7988C80B2164A108001229A71C8
:103740009979C9B20A404D0701D502252A43890754
:1037500001D504210A43520701D502229A710022A1
:103760000D4B1A600021844207D9241A0B494C439F
:10377000E1170905090D091909130948094CA04762
:10378000054B19680848A04770BDC04614050020C5
:10379000E804002010050020F80300208813000032
:1037A0009C510000B53E0000AC510000F0B5CE4683
:1037B000474680B599B0904B984701248F4B1C70B9
:1037C000BFF35F8F62B601AA8023DB05019300235C
:1037D0005360FF2111819372D37296218901916206
:1037E0002C21545401315454013153540131535458
:1037F0001363053153540131535453610021138233
:10380000D176D3611384538411762433D154517605
:10381000113B93761333D154013BD154C4239B0302
:10382000D36001235B429363D363754B1364754B81
:103830005364754D754B1D607549764B196076491B
:10384000764B196076492800764B9847764F3B684F
:1038500098680021754EB0473B6858680021B04712
:103860002E683000724B98471F2318408440714BDC
:103870001C602B68DA69002AFCD1336802273B43BD
:1038800033606D4B984701AC20006C4B98470D237B
:10389000A3700126267000256570E570210016A82A
:1038A000674B9847052116A8664B9847664913A8A9
:1038B000664B984713A916A8654B9847012116A88F
:1038C000644B9847644B9847644B98476448654BF2
:1038D0009847654B9847654B98476B465D709E705F
:1038E000DD70062399466B464A461A7069461820D1
:1038F0005F4B984698476B464A461A7069461920AE
:10390000C047082323706570A570E6702671667144
:10391000A671E57125726572093B63812573657334
:10392000A573E57325746774A774E6742675514B07
:10393000A36126776577A677E5772023E5540133E1
:10394000E5544D4D22004D4928004D4B9847280025
:103950004C4B984780221202364B1A602A68516DF0
:10396000C0235B050B435365474B9847474B98472C
:10397000474C16A8A0470028FBD1464B0193019B5A
:10398000DB0ADB02022213430193019B424A1A40E5
:10399000424B13430193019AE0239B051343019388
:1039A000354C002201A920003D4B98472268516DFB
:1039B00080231B030B4353653A4B984780229203A5
:1039C0008223DB059A61384C384E394D394A002143
:1039D0002000B0472B78012B0AD0374B1B78002BE7
:1039E000F4D1364B1B78012BF0D1354B9847EDE7DE
:1039F000344B9847F1E7C0464927000014000020E7
:103A000003002A0003002B0088030020A8040020E4
:103A1000BD2A0000A4040020912A0000A004002078
:103A200000140042C91A000030000020BD3F000011
:103A3000391A000000E100E0D52A0000550F00000F
:103A4000690F000035100000C52F0000090E0000AE
:103A5000150E0000490E00006D3500000136000013
:103A6000AC040020B108000029360000FD2A000047
:103A700019270000FFFFFF1F84030020001C0042E5
:103A80003111000025140000892B0000B52B000027
:103A90001D100000FF070088FFFF00F800005A0417
:103AA0003D14000059360000FC0400208908000085
:103AB00083030020FF0100003C040020F4030020E9
:103AC0008930000021300000002243088B4274D36B
:103AD00003098B425FD3030A8B4244D3030B8B420F
:103AE00028D3030C8B420DD3FF22090212BA030C18
:103AF0008B4202D31212090265D0030B8B4219D3F9
:103B000000E0090AC30B8B4201D3CB03C01A524118
:103B1000830B8B4201D38B03C01A5241430B8B4260
:103B200001D34B03C01A5241030B8B4201D30B0349
:103B3000C01A5241C30A8B4201D3CB02C01A524170
:103B4000830A8B4201D38B02C01A5241430A8B4233
:103B500001D34B02C01A5241030A8B4201D30B021C
:103B6000C01A5241CDD2C3098B4201D3CB01C01A36
:103B7000524183098B4201D38B01C01A5241430940
:103B80008B4201D34B01C01A524103098B4201D32E
:103B90000B01C01A5241C3088B4201D3CB00C01A9B
:103BA000524183088B4201D38B00C01A5241430813
:103BB0008B4201D34B00C01A5241411A00D2014638
:103BC000524110467047FFE701B5002000F006F8AB
:103BD00002BDC0460029F7D076E770477047C0465F
:103BE000002B11D1002A0FD1002900D1002802D0CA
:103BF0000021C943081C07B4024802A140180290E2
:103C000003BDC046D9FFFFFF03B4684601B5029863
:103C100000F030F8019B9E4602B00CBC7047C046D5
:103C2000F0B5CE46474615042D0C2E0080B507048E
:103C3000140C3F0C9946030C7E435D43674363437A
:103C40007F19340CE4199C46A54203D980235B02FA
:103C50009846C4444B46514343433604360C250C26
:103C600024046544A4195918491920000CBC904635
:103C70009946F0BDF0B557464E464546DE46E0B59E
:103C8000040083B00D00924699468B422FD82CD069
:103C90004946504600F0AEF829000600200000F02A
:103CA000A9F8331A9846203B9B4600D574E053464A
:103CB0005A4693401F005346424693401E00AF426F
:103CC00029D826D05B46A41BBD41002B00DA79E041
:103CD000002200230092019301235A46934001934E
:103CE000012342469340009319E08242D0D900223A
:103CF0000023009201930C9B002B01D01C605D609F
:103D00000098019903B03CBC90469946A246AB4648
:103D1000F0BDA342D6D9002200230092019343466E
:103D2000002BE8D0FB0772081A4346467B080EE0DA
:103D3000AB4201D1A2420CD8A41A9D410120241902
:103D40006D410021013E24184D41002E06D0AB42AA
:103D5000EED9013E24196D41002EF8D15B46009842
:103D6000019900196941002B22DB2B005A46D340F0
:103D70002A004446E2401C005B461500002B2CDB69
:103D800026009E40330026004746BE403200801A7F
:103D9000994100900191AEE7424620239B1A52467A
:103DA000DA40414613004A468A4017001F4382E723
:103DB000424620239B1A2A0046469A402300F3409D
:103DC0001343D5E74246202300219B1A002200918D
:103DD00001920122DA40019282E742462023260026
:103DE0009B1ADE402F00B446974066463B003343A3
:103DF000C9E7C04610B5002903D100F007F820300C
:103E000002E0081C00F002F810BDC0461C2101238E
:103E10001B04984201D3000C10391B0A984201D3AD
:103E2000000A08391B09984201D30009043902A28B
:103E3000105C40187047C0460403020201010101F2
:103E4000000000000000000070B500260C4D0D4C75
:103E5000641BA410A64209D1002601F035FA0A4DD0
:103E60000A4C641BA410A64205D170BDB300EB58E8
:103E700098470136EEE7B300EB5898470136F2E772
:103E8000D4520000D4520000D4520000D852000096
:103E9000002310B59A4200D110BDCC5CC45401334C
:103EA000F8E703008218934200D17047197001337C
:103EB000F9E700000FB40B4B13B51C68002C05D0BC
:103EC000A369002B02D1200000F0F2FA05AB049A9E
:103ED000A1682000019300F0C1FC16BC08BC04B02E
:103EE0001847C0463000002070B505000E000028BD
:103EF00004D08369002B01D100F0DAFAAB69AC6819
:103F0000002B02D1280000F0D3FA244B9C420FD1A1
:103F10006C68A3891B0702D52369002B20D12100DF
:103F2000280000F057F900281AD00120404270BD47
:103F30001B4B9C4201D1AC68EBE71A4B9C42E8D189
:103F4000EC68E6E7013B0136A360002B04DAA269C6
:103F5000934216DB0A2914D023685A1C2260197078
:103F60003178A3680029EDD1013BA360002B0FDA63
:103F700022000A31280000F0D7F8431CD5D00A20CF
:103F8000D5E72200280000F0CFF8431CE8D1CCE7A9
:103F90000A2023685A1C22601870C8E75452000097
:103FA000745200003452000010B5034B0100186831
:103FB000FFF79AFF10BDC046300000204A424A4138
:103FC000802310B55200DB0000F002F810BD0000A5
:103FD000F0B51D004F4B85B01E6804000F00009225
:103FE000002E05D0B369002B02D1300000F060FA3A
:103FF000494B9C4250D17468009B022B05D0012B89
:1040000000D984E0002D00DA81E02100300000F0CA
:10401000E1F9616B002908D023004433994202D0B2
:10402000300000F04BFB002363630023A361636057
:10403000A3891B0603D52169300000F03FFBA3894B
:10404000364A1340A381009B022B5AD003AB02AA2D
:104050002100300000F0C2FAA3891843A081002D8E
:1040600024D1029D280000F01FFB0195071E42D1BC
:10407000029B0193AB4239D1012040420223A28925
:104080001343A3810023A3602300473323602361EC
:104090000123636105B0F0BD214B9C4201D1B4689E
:1040A000AAE7204B9C42A7D1F468A5E7002FD9D0FE
:1040B000B369002B02D1300000F0FAF9009B012B0C
:1040C00003D1A389009A1A43A2810820A3892760FB
:1040D00027616561184018D00120184000239842DC
:1040E00011D06D42A360A5611800D3E7019800F0DC
:1040F000DBFA071EC0D08023A289019D1343A38150
:10410000D6E70020BAE7A560C4E7A060C2E70120B7
:104110004042BFE730000020545200005CF3FFFF34
:104120007452000034520000F8B505000E0014006F
:10413000002804D08369002B01D100F0B9F9224B8B
:104140009C422DD16C68A369A360A3891B0731D55C
:104150002369002B2ED023682269F7B2981A63696D
:10416000F6B2984205DB2100280000F033F9002860
:1041700026D1A3680130013BA36023685A1C22604A
:104180001F706369984204D0A389DB071AD50A2EF1
:1041900018D12100280000F01DF9002812D00FE0EE
:1041A0000A4B9C4201D1AC68CDE7094B9C42CAD175
:1041B000EC68C8E72100280000F00CF80028CAD0FD
:1041C000012676423000F8BD5452000074520000BF
:1041D00034520000364B70B51D6806000C00002DEF
:1041E00005D0AB69002B02D1280000F061F9314BFA
:1041F0009C420FD16C680C23E25E93B219072DD458
:10420000D90611D409230120336037331343A38126
:10421000404270BD284B9C4201D1AC68EBE7274B74
:104220009C42E8D1EC68E6E75B0713D5616B002997
:1042300008D023004433994202D0300000F03EFA07
:10424000002363632422A3899343A3810023636033
:10425000236923600823A2891343A3812369002BC8
:104260000BD1A0218022A389890092000B409342A8
:1042700003D02100300000F0D9F90123A2891340B6
:1042800011D00023A36063695B42A361002023690E
:104290008342BED10C23E25E1306BAD540231343FA
:1042A000A3810138B5E7920700D46369A360EDE705
:1042B00030000020545200007452000034520000BC
:1042C000F7B58A8905000C00130760D44B68002BF2
:1042D00004DC0B6C002B01DC0020FEBDE76A002F24
:1042E000FAD000232E682B6080235B011A4034D063
:1042F000606DA3895B0706D56368C01A636B002BEA
:1043000001D0236CC01A0200216A00232800E76A4A
:10431000B847A189431C06D12B681D2B31D82C4AE4
:10432000DA40D3072DD50023636023692360CB04D3
:1043300005D5431C02D12B68002B00D16065616B51
:104340002E600029C8D023004433994202D02800AF
:1043500000F0B4F900206063BFE70123216A280060
:10436000B847431CC5D12B68002BC2D01D2B01D0F0
:10437000162B01D12E60AFE74023A2891343A381FE
:10438000ABE740230B430120A3814042A5E70F691F
:10439000002FA1D00B680F60DB1B01930023920755
:1043A00000D14B69A360019B002B00DC94E7019BCB
:1043B0003A00216A2800A66AB047002803DC40239F
:1043C000A2891343DFE7019B3F181B1A0193EAE719
:1043D000010040200B6970B505000C00002B01D1D5
:1043E000002070BD002804D08369002B01D100F0AB
:1043F0005FF80B4B9C4209D16C680C22A35E002B2A
:10440000EED021002800FFF75BFFEAE7054B9C4256
:1044100001D1AC68F1E7044B9C42EED1EC68ECE7CB
:1044200054520000745200003452000010B502498A
:1044300000F0B2F810BDC046D5430000002310B50F
:10444000040003604360836081814366C28103612D
:1044500043618361190008225C30FFF722FD054BA0
:1044600024626362044BA362044BE362044B236344
:1044700010BDC046C94D0000F14D0000294E00009E
:10448000554E000070B568254A1E55430E002900A0
:10449000743100F05DF9041E08D000212A0001608B
:1044A00046600C30A0606832FFF7FBFC200070BD56
:1044B000836913B50400002B28D18364C3640365AA
:1044C000134B144A1B6882620193984201D1012365
:1044D0008361200000F020F86060200000F01CF8EC
:1044E000A060200000F018F80022E060042160685D
:1044F000FFF7A4FF01220921A068FFF79FFF022216
:104500001221E068FFF79AFF0123A36113BDC046A3
:10451000305200002D440000F8B51E4B07001E6805
:10452000B369002B02D13000FFF7C2FF4836B468F0
:104530007368013B04D53368002B07D03668F6E773
:104540000C22A55E002D0DD06834F2E7042138005E
:10455000FFF798FF30600028F0D10C2304003B6087
:104560002000F8BD012320005B42E3810233A381D8
:1045700065662560A560656025616561A5610822A5
:1045800029005C30FFF78DFC6563A563A564E564D5
:10459000E6E7C04630520000F7B5040007000026E9
:1045A00001914834002C01D13000FEBD6368A5683C
:1045B0000093009B013B009301D52468F2E7AB898F
:1045C000012B08D90E22AB5E013304D0290038003C
:1045D000019B984706436835EBE7000070B50E0075
:1045E0001D000E23C95E90B01400002907DA0023D5
:1045F0002B60B3891B0611D48023DB000FE001AAD6
:1046000000F054FC0028F2DBF022029B120213405F
:10461000054A9B185A4253412B60EDE74023002086
:10462000236010B070BDC04600E0FFFFF7B5022662
:104630008B8905000C00334206D0230047332360EA
:10464000236101236361F7BD01AB6A46FFF7C6FF33
:1046500000990700280000F07BF8002806D10C2202
:10466000A35E9A05EFD41E43A681E6E70D4BAB622D
:104670008023A28920601343A381009B2061636192
:10468000019B002B0AD00E23E15E280000F020FCE5
:10469000002803D00123A2891343A381A0893843B2
:1046A000A081D0E72D44000010B5034B010018682D
:1046B00000F04EF810BDC0463000002070B5050077
:1046C000002910D00C1F2368002B00DAE418280002
:1046D00000F02FFC1D4A1368002B05D163601460A5
:1046E000280000F027FC70BDA34209D9216860189A
:1046F0008342F3D118685B6841182160EEE713002C
:104700005A68002A01D0A242F9D919685818A04263
:104710000BD120680918581819608242E0D110683E
:104720005268411819605A60DAE7A04202D90C2396
:104730002B60D5E721686018824203D11068526867
:104740004118216062605C60CAE7C04660040020D6
:10475000032370B5CD1C9D43083506000C2D1ED2D9
:104760000C25A9421DD8300000F0E3FB254A14684F
:104770002100002919D1244C2368002B03D13000DB
:1047800000F010FB20602900300000F00BFB431C00
:104790002CD10C233000336000F0CCFB03E0002D63
:1047A000DFDA0C233360002070BD0B685B1B1AD46A
:1047B0000B2B03D90B60CC18256003E08C420ED183
:1047C00063681360300000F0B5FB200007220B3057
:1047D000231D9043C31AE7D05A42E250E4E74B68E6
:1047E00063600C00EEE70C004968C2E70323C41CB9
:1047F0009C43A042E0D0211A300000F0D3FA431CC1
:10480000DAD1C6E76004002064040020936810B584
:10481000013B9360002B05DA9469A34208DBCBB21D
:104820000A2B05D01368581C10601970C8B210BD4F
:10483000FFF77AFCFBE7F8B506000F001400D51867
:10484000AC4201D1002007E021783A003000FFF7A8
:10485000DDFF0134431CF3D1F8BD0000F0B59FB07B
:1048600006000F0014000593002804D08369002B74
:1048700001D1FFF71DFE7F4B9F425CD17768BB895A
:104880001B0762D53B69002B5FD0002306AD6B612F
:1048900020336B761033AB760294029C2378002B86
:1048A0005DD1029BE31A04930DD0049B029A390058
:1048B0003000FFF7C0FF431C00D1CCE06A69049BC5
:1048C000944663446B612378002B00D1C3E001223E
:1048D000002352426A6002A95432521801342B60FC
:1048E000EB60AB601370AB6521780522624800F085
:1048F00015FB631C9C46002835D12968CB0604D5DE
:10490000532302AA20309B1818700B0704D5532399
:104910002B2002AA9B18187023782A2B2CD0002059
:104920000A21099B2278303A092A00D86BE0002836
:104930002AD0099328E0514B9F4201D1B7689EE7E6
:104940004F4B9F429BD1F76899E739003000FFF742
:1049500041FC002899D0012040421FB0F0BD252B1A
:104960009FD001349AE7444B2968C01A0123834041
:104970000B432B606446B7E7059B181D1B68059029
:10498000002B3ADB0993644623782E2B0BD16378F6
:10499000621C2A2B3FD1059B02341A1D1B6805920D
:1049A000002B35DB079321780322364800F0B6FA56
:1049B000002807D0334B2A68C01A40238340134392
:1049C0002B6001342178631C06222F48029329763C
:1049D00000F0A4FA002844D02C4B002B2FD12968DA
:1049E000059B0722C90528D59B18934308330593D7
:1049F0006B69039A9B186B614FE75B42EB60022384
:104A00000B432B60BFE74B4301349B18012089E720
:104A100001235B42C6E7002314000A201A006B60E2
:104A200021783039092903D9002BBCD00792BAE785
:104A30004243013452180123F2E70733D5E705ABAF
:104A400000933A00124B2900300000E000BF0390B1
:104A5000039B0133CCD1BB895B0600D57BE70B9868
:104A60007BE705AB00933A00094B2900300000F0CA
:104A70007FF8ECE75452000094520000745200009A
:104A8000345200009A5200009E52000000000000C4
:104A900037480000F7B5150001938A680B6900904C
:104AA0000C00934200DA130022002B60433212788C
:104AB000002A01D001332B6023689B0602D52B68A6
:104AC00002332B60062723681F4027D0230043337F
:104AD0001B785A1E93412268920630D42200019915
:104AE00043320098089EB047431C25D00623206817
:104AF0002A68E16803400025042B03D18D1AEB439B
:104B0000DB171D40A3682269934201DD9B1AED1853
:104B10000027BD4220D1002010E00137E3682A6859
:104B20009B1A9F42D2DA2200012319320199009880
:104B3000089EB047431CF0D101204042FEBD30200A
:104B4000E1184331087021005A1C45310978A21838
:104B5000433202331170C1E7220001231A32019956
:104B60000098089EB047431CE6D00137D1E700000B
:104B7000F0B58BB006920A00433207930590049279
:104B80000A7E0C00109B6E2A00D18FE017D8632A92
:104B90002CD008D8002A00D199E0582A54D02600F9
:104BA0004236327029E0642A01D0692AF7D121689F
:104BB0001A68080623D5111D1960156825E0732AA7
:104BC00000D188E008D86F2A29D0702AE7D12022A6
:104BD00009680A43226003E0752A20D0782ADED1D2
:104BE00022007821453211706C4A30E00E001A68BC
:104BF0004236111D196013683370012379E04906AC
:104C0000D9D5111D19600023D55E002D03DA2D239F
:104C1000049A6D421370624B0A2703932FE02068B9
:104C20001968050603D5081D18600D6805E04006E3
:104C3000F9D50D68081D1860ADB2594B08270393CC
:104C40006F2A18D00A2716E045310A70544A039299
:104C50001A682168101D18601568080622D5CB0750
:104C600002D52023194321601027002D03D12023D2
:104C700022689A4322602300002243331A7063683B
:104C8000A360002B5CDB0422216891432160002D8E
:104C900058D1049E002B64D02600039B42361B781B
:104CA00033705EE04806DAD5ADB2D8E709681A6815
:104CB000080605D5111D1960136862691A6006E0BF
:104CC0004906F7D5111D19601368A28A1A800023BE
:104CD000049E236154E01A68111D196016680021B2
:104CE0006268300000F01AF9002801D0801B606073
:104CF000636823610023049A137041E02369320042
:104D000006990598079DA847431C43D023680025B2
:104D10009B070FD4099BE06898423DDA18003BE0FE
:104D200022000123193206990598079EB047431CBB
:104D300030D00135E368099A9B1A9D42F0DBE9E720
:104D4000002DA9D0049E28003900FEF743FF039BE5
:104D5000013E5B5C280033703900FEF7B5FE051E8E
:104D6000F1D1082F09D12368DB0706D563682269D2
:104D7000934202DC3023013E3370049B9B1B236172
:104D8000079B09AA00932100069B0598FFF782FE66
:104D9000431CB3D1012040420BB0F0BDB65200001D
:104DA000A5520000002370B5064C050008002360E2
:104DB000FDF770FD431C03D12368002B00D02B604E
:104DC00070BDC0463405002070B50C000E25495F4B
:104DD00000F0B2F8002803DB636D1B18636570BD3B
:104DE000A389024A1340A381F9E7C046FFEFFFFF02
:104DF000F8B51F008B8905000C001600DB0505D5F2
:104E00000E23C95E0022022300F074F8A389054A2C
:104E100028001340A38132000E23E15E3B0000F026
:104E20001FF8F8BDFFEFFFFF70B50C000E25495FBE
:104E300000F060F8A389421C03D1054A1340A38106
:104E400070BD802252011343A3816065F8E7C0461C
:104E5000FFEFFFFF10B50E23C95E00F015F810BD7F
:104E600070B50500080011000022064C22601A00EF
:104E7000FDF7E8FC431C03D12368002B00D02B6016
:104E800070BDC04634050020002370B5064C0500F7
:104E900008002360FDF710FD431C03D12368002B9D
:104EA00000D02B6070BDC04634050020002370B5D3
:104EB000064C0500080011002360FDF700FD431CAF
:104EC00003D12368002B00D02B6070BD3405002077
:104ED000002370B5064C050008002360FDF7F4FCC4
:104EE000431C03D12368002B00D02B6070BDC0464B
:104EF0003405002070B50500080011000022064CA2
:104F000022601A00FDF7E2FC431C03D12368002B4A
:104F100000D02B6070BDC04634050020C9B2821895
:104F2000904201D10020704703788B42FBD00130C2
:104F3000F6E770477047000070B5050008001100E3
:104F40000022064C22601A00FDF75AFC431C03D1D4
:104F50002368002B00D02B6070BDC04634050020B4
:104F6000F40300005C0600005C0600005C06000024
:104F70005C0600005C0600005C0600005C060000A9
:104F80005C0600005C0600005C0600005C06000099
:104F90005C0600005C0600005C0600005C06000089
:104FA000DC0300005C0600005C0600005C060000FC
:104FB0005C0600005C0600005C0600005C06000069
:104FC0005C0600005C0600005C0600005C06000059
:104FD0005C0600005C0600005C0600005C06000049
:104FE000EC0300005C0600005C0600005C060000AC
:104FF0005C0600005C0600005C0600005C06000029
:105000005C0600005C0600005C0600005C06000018
:105010005C0600005C0600005C0600005C06000008
:10502000E40300002C040000C4030000D4030000CB
:10503000CC03000002000000030000002800000074
:105040002900000004000000050000000600000028
:105050000700000008000000090000000A0000002E
:105060000B000000200000002100000022000000D2
:105070002300000028000000290000002400000098
:1050800025000000260000002700000008000000A6
:105090000900000000000200000004002060800001
:1050A00020608000030900002060800020608000F4
:1050B000000600000B0000000B0000002122000091
:1050C00001000000020000000400000008000000D1
:1050D00000100000002000000040000000800000E0
:1050E00000000100000002000000040000000800B1
:1050F0000004004200080042000C00420010004280
:105100000014004200180042BA200000B62000003F
:10511000B6200000E8200000E8200000D2200000B7
:10512000C0200000D8200000AC2200008C2200002B
:105130008C220000E22200009E220000BA22000021
:1051400090220000C8220000191A00002344656C58
:1051500074615F636861726765203E3D20302E2078
:1051600049742069733A202564207C207065722080
:105170003A2025640A0000002343757474696E6741
:10518000206F666620746865206368617267696E67
:10519000672063697263756974000000566F6C74F0
:1051A000616765202564200D0A000000496E69745E
:1051B00069616C2064656C74615F636861726765C6
:1051C000202564200D0A00000A0D204375747469BF
:1051D0006E67206F66662074686520636861726719
:1051E000696E672063697263756974200D00000041
:1051F000256420766F6C74616765202564200D0A34
:1052000000000000256420635F63757272656E7430
:10521000202564200D0A0000256420645F637572F8
:1052200072656E74202564200D0A0D0A00000000CE
:10523000340000200000000000000000000000001A
:10524000000000000000000000000000000000005E
:10525000000000000000000000000000000000004E
:10526000000000000000000000000000000000003E
:10527000000000000000000000000000000000002E
:10528000000000000000000000000000000000001E
:1052900000000000232D302B2000686C4C00656658
:1052A0006745464700303132333435363738394177
:1052B000424344454600303132333435363738398D
:1052C0006162636465660000F8B5C046F8BC08BC5E
:1052D0009E467047E5000000F8B5C046F8BC08BC23
:0852E0009E467047BD0000006E
:0852E8008CE9FF7F01000000CA
:1052F000000000000C0000000000000000000000A2
:10530000000000000100000080C4BA004129000034
:10531000E129000001000000D12800004D2A000012
:1053200034000020000000005452000074520000BD
:1053300034520000000000000000000000000000E7
:10534000000000000000000000000000000000005D
:10535000000000000000000000000000000000004D
:10536000000000000000000000000000000000003D
:10537000000000000000000000000000000000002D
:045380000000000029
:040000030000277959
:00000001FF
