:10000000D8260020AD260000A9260000A926000061
:1000100000000000000000000000000000000000E0
:10002000000000000000000000000000A926000001
:100030000000000000000000A9260000A926000022
:10004000A9260000A9260000C5090000A926000075
:10005000A9260000D50B0000A9260000A926000053
:10006000950D000095190000A5190000B5190000B4
:10007000C5190000D5190000E51900009D300000E9
:10008000A9260000890C0000990C0000A90C0000B2
:10009000A9260000A9260000A9260000A926000024
:1000A000A92600004507000055070000A92600000A
:1000B000A9260000A9260000A926000010B5064CBC
:1000C0002378002B07D1054B002B02D0044800E019
:1000D00000BF0123237010BD980000200000000025
:1000E000B0520000084B10B5002B03D00749084858
:1000F00000E000BF07480368002B00D110BD064B8D
:10010000002BFBD09847F9E7000000009C0000207E
:10011000B0520000B05200000000000010B582B0E4
:100120006A46084B12CB12C2009B984205D00023AE
:10013000019A824203D1013300E00023DBB21800B0
:1001400002B010BD304E000010B500230022037035
:1001500043708370C370002103830362C361012471
:100160000471C0246401C480017242728272C2723E
:1001700002732A24025542738273C27303610275AB
:10018000063C0255C3840385417510BDF0B55F463A
:1001900056464D464446F0B49DB005000E0017008B
:1001A0000800D14B9847040000902E60CF4AD169D7
:1001B0008000CF4BC3580B43D36133780520DB0756
:1001C00000D54DE22A68138C9BB2002BFBD133780B
:1001D0001C209B0700D543E27B782B71002B04D1B8
:1001E000C44AD16904330B43D3610023AB60EB6095
:1001F0002B61AB76EB762B832B77A300BE4A9D5009
:100200002A23FB5C002B05D13B7B002B02D1013361
:100210006B7701E000236B772B689A463B7802AA44
:100220001370B64B1E5D11003000B54B984730007F
:10023000B44B98473B79984604AEB34B9C461A00A2
:100240000832310049CA49C149CA49C149CA49C1EC
:1002500049CA49C110A9634638330A0043CB43C297
:1002600043CB43C243CB43C243CB43C2009B002B8F
:1002700003D010A9012B03D001E004A900E0002164
:10028000A300A24A9B58994698450CD8434698002B
:10029000405803A900234B70CB708B7001330B7057
:1002A000C0B29B4B9847FB88984604AE964B9C4641
:1002B0001A000832310049CA49C149CA49C149CA6C
:1002C00049C149CA49C110A9634638330A0043CB22
:1002D00043C243CB43C243CB43C243CB43C2009A46
:1002E000002A03D010AB012A03D001E004AB00E0E8
:1002F0000023C84500D9ADE142469000C05803A98B
:1003000000234B70CB708B7001330B70C0B2804BED
:1003100098479FE15B46424693403A691A4230D083
:1003200004A8794B0833020043CB43C243CB43C2FA
:1003300043CB43C243CB43C210A8734B38330200B4
:1003400043CB43C243CB43C243CB43C243CB43C261
:10035000009A002A03D010AB012A03D001E004ABBD
:1003600000E00023019A4A450BD89100C85803A920
:1003700000234B70CB708B705B460B70C0B2644B2C
:10038000984746460136F3B2984601934B45C1D98A
:100390007B7B9A01BB7BDB011343DBB252461370BC
:1003A0003B7DDB017A781343DBB252469370FB78D6
:1003B000342B00D94CE19B00564AD3589F46042069
:1003C000102102221AE07A7A387A102116E00620EB
:1003D0001021012212E00820102100220EE000204E
:1003E000302100220AE000202021002206E0002027
:1003F0000021002202E002201021012212017023BC
:1004000013400343524613732A68138C9BB2002B8C
:10041000FBD17B7D17203F2B00D921E1FA7BD20154
:100420001343DBB2524653732A68138C9BB2002BE2
:10043000FBD1BB78524653702423FA5CD2003B7B3D
:100440009B001343FA7A1A43BB7A5B0013430B43B6
:10045000524653812A68138C9BB2002BFBD13B8BF5
:10046000002B00D192E0102976D002D8002955D077
:100470008CE020291AD0302900D087E0FA7A002AAF
:100480000AD0FA6980321720FF2A00D9E8E03A6AD8
:100490008032FF2A00D9E3E01720FA69FF2A00DD45
:1004A000DEE03A6AFF2A00DDDAE06FE0FA7A002A3D
:1004B0000FD0FA69802189008C46624417201649C2
:1004C0008A4200D9CCE03A6A624413498A4200D990
:1004D000C6E01720104AF969914200DDC0E0396A90
:1004E000914200DDBCE051E01D0100000008004029
:1004F0009C4E00000018004014060020A84E00008A
:1005000051250000E1240000304E0000AC4E0000F8
:100510004D2600005C4D0000FF030000FA7A002A1F
:100520000FD0FA69802109018C4662441720504996
:100530008A4200D994E03A6A62444D498A4200D91D
:100540008EE017204A4AF969914200DD88E0396A55
:10055000914200DD84E019E0FA7A002A0ED0FA69AF
:10056000802109028C466244172042498A4200D900
:1005700076E03A6A62443F498A4271D817203D4A80
:10058000F96991426CDC396A914269DC52465289C0
:100590001343524653812A68138C9BB2002BFBD124
:1005A000BB8B5246D3812A68138C9BB2002BFBD1A4
:1005B0003B8C524613822A68138C9BB2002BFBD1D2
:1005C0003A79FB881343524613812A68138C9BB2F5
:1005D000002BFBD12A33FB5C5246D37007231371E7
:1005E0001D33FB5C002B1BD0FB8C1720204A934251
:1005F00036D8524653822A68138C9BB2002BFBD10B
:100600003A8D80231B01D3189BB2172018498B42C7
:1006100026D853469A822A68138C9BB2002BFBD1B2
:10062000A200154BD3581549095D1B68CB401B022E
:10063000E021C9001940124BD358124A125D1B68C1
:10064000D340072213400B4352469385002007E016
:10065000172005E000230193984601339B4659E695
:100660001DB03CBC90469946A246AB46F0BDC04684
:10067000FF0F0000FFFF0000BC4E0000984E00007E
:10068000B44E0000A44E000070B580002C4BC4583E
:1006900023689D79EDB2EA0735D5E27ED20732D5DF
:1006A000A27ED2072FD501229A716269931C6361E1
:1006B00023689B8C9BB21380238B013B9BB22383CB
:1006C000002B15D0637F002B1DD02268D3795BB23D
:1006D000002B18DB138C9BB2002BFBD1117E023355
:1006E0000B4313762268138C9BB2002BFBD10AE0DC
:1006F000237F052B07D10023237701332268137151
:100700002000A36898476B070BD5042322689371D8
:10071000E37E9B0705D5A37E9B0702D52000E368F7
:100720009847AB070BD5022322689371E37E5B07E2
:1007300005D5A37E5B0702D523692000984770BDCD
:100740001406002010B50020014B984710BDC0468C
:100750008906000010B50120014B984710BDC04626
:100760008906000002680421074B196001680B69C3
:10077000002BFCD1118802330B43138002681369EC
:10078000002BFCD17047C04600E100E010B50368C3
:100790000424802208498C5001680A69002AFCD18F
:1007A000064A1A819A811A8802218A431A800268AD
:1007B0001369002BFCD110BD00E100E0FF81FFFFB9
:1007C00070B504000568094B9847002323866386AB
:1007D00022681369002BFCD12A88013313432B8034
:1007E00022681369002BFCD170BDC0468D07000044
:1007F00010B5CB88C2889B1A9A064B799C050B7959
:100800005B0423438C782403234313430279002A97
:1008100005D1CA78002A02D08022520213434878B8
:1008200080010A781043184310BDC04610B58C0EE5
:10083000C388E318D3808B011B0F53718B02DB0E2F
:1008400013710379002B03D0CB03DB0E937005E00B
:100850000B041B0F9370CB03DB0FD3708B093F206E
:10086000034053700140117010BDC04670B50400C4
:100870000568054B98472B69002BFCD1A8612268BD
:100880001369002BFCD170BDF107000010B50A0000
:1008900004682369002BFCD1A169014B984710BD66
:1008A0002D080000F8B505000E0014001720012ADD
:1008B00015D82F6828000A4B98473B69002BFCD1BC
:1008C000E4003C1920622A681369002BFCD1327ABB
:1008D0002433E2542A681369002BFCD10020F8BDB0
:1008E000F107000070B5050014000160164A536955
:1008F000802189000B4353610022144B1A61144B71
:100900009847E3782B71A388EB80124B1D602A680F
:100910002388A179002902D108310B4301E00E4957
:100920000B43E178002901D140310B43A178002924
:1009300001D080210B4313802100083100222800C0
:10094000064B984770BDC0460008004000140040A8
:10095000C10700001C06002008800000A508000058
:10096000092A01D9172009E0931C9B001950018E18
:10097000012393400B439BB2038600207047C0467F
:1009800010B50368092902D10D4A5A8110E00729E0
:1009900005D801228A40FF2422405A8108E08022A3
:1009A00052000C00083CA2408024640022405A817E
:1009B000428E01238B4013439BB2438610BDC04639
:1009C0000080FFFFF8B55F4656464D464446F0B4FA
:1009D000234B1B689A461E685B8E5246128E1A4045
:1009E0009046B389728913401AB2002A08DA434646
:1009F0009B0502D55346DB6A98471A4BB38128E022
:100A0000FF271F401AD0002401239946FE339B463E
:100A100023004D46A5402F4209D042462241494677
:100A2000114204D002339B0052469B5898475B46C4
:100A30001D40B5810134082CEAD10AE0DB0508D558
:100A40004346DB0502D553469B6A984780235B00EB
:100A5000B3813CBC90469946A246AB46F8BDC04621
:100A60001C0600200080FFFF10B582B00400274A5A
:100A70005369802149010B435361254B1B780520A5
:100A8000DB0741D4224B1B7817309B073CD401A9CC
:100A900023780B7017381F4B984705201E4B98473B
:100AA000A3789B01DBB21A4A13702379002B06D07E
:100AB0001720A268283227DBE268692A24DC6278E2
:100AC00012011343DAB2124B9A70E2681202120A50
:100AD0001A61A2681202120A5A61227CDA700F228D
:100AE0001A710E4A12681002FC2189010140120598
:100AF000920E0A431A6262691202120A9A61A2698C
:100B00001202120ADA61002002B010BD0008004093
:100B10000030004051250000E124000030608000DA
:100B200000230370437083700371C3608360037498
:100B3000064B1B68064A12681901090A8161190BE4
:100B40000F2313400B4343617047C0463060800061
:100B5000346080001E4B9A79D2B201231340910772
:100B600001D502210B43510701D504210B43120784
:100B700001D5082213430522DB0727D5144BDB7967
:100B80000E32DB0722D4124BDB681A0202D5FF2299
:100B9000120613435B4203600D4A0123937192795D
:100BA000D2B21340910701D502210B43510701D561
:100BB00004210B43120701D5082213439B0704D5D8
:100BC0000222034B9A711C3200E000221000704791
:100BD00000300040F0B5474680B4134B1F68134BFC
:100BE0009E79F6B2DB681A0202D5FF221206134381
:100BF0003A695B421360002401250C4B9846E0B231
:100C00003300E3401D4209D02B00A340DBB2424633
:100C10009371A300FB58002B00D098470134042C9B
:100C2000EDD104BC9046F0BD20060020003000400D
:100C3000F8B54F464646C0B48000114BC35899469C
:100C40001B68DF6A4B465B6B1F404B469B6B1F402C
:100C50000C4D4B461C1D34234B4498462E683E4297
:100C600005D04846236898474B461B68DE6204352A
:100C700004344445F2D10CBC90469946F8BDC046B8
:100C800024060020C44E000010B50020014B9847F8
:100C900010BDC046310C000010B50120014B984733
:100CA00010BDC046310C000010B50220014B984722
:100CB00010BDC046310C000000238360036041601A
:100CC0000020704708600A4B1A69002A02D1196196
:100CD00004E01A009368002BFBD19160054B1B6860
:100CE000DB0503D480225200024B1A6000207047BB
:100CF0000000002000E100E010B5012908D10078D3
:100D00000F31094B98478423DB055861002309E024
:100D10001723002906D10078034B98478423DB056D
:100D200058610023180010BDD10D000010B503005C
:100D3000012904D100780F31074B984705E00020C6
:100D4000002908D11878044B9847044B9B68184039
:100D5000431E9841C0B210BDD10D0000000000201C
:100D600010B5012904D100780F31084B984705E0F0
:100D70001723002907D10078044B9847044AD36809
:100D80001843D0600023180010BDC046D10D0000EC
:100D90000000002010B50C4B1C698421C90588692E
:100DA0009A6802439A60094B8B61002C05D0206839
:100DB00063689847A468002CF9D1034BD9689A68F6
:100DC0008A439A6010BDC04600000020FF0FFF0F4D
:100DD00009180120884070470649CB690122134356
:100DE000CB618423DB051A7019000B781342FCD108
:100DF0007047C04600080040012303700023437081
:100E00008370C370037143717047C04670B582B080
:100E100006000D00284B9847284B1B68DA0744D47E
:100E200002E01A4210D100E00024244B196801228C
:100E3000A2400A431A601A79013A1A71204B984766
:100E40001420FF2C06D134E05B080134E4B20C2CF2
:100E5000E7D126E034706B78022B0AD001A9EB7839
:100E60000B700634E4B22000164B98472000164B56
:100E70009847AB787F2119402B799B0319436A79F6
:100E8000D20311436B781B02C02292001340194316
:100E90002B789B02C022120113400B437360002089
:100EA00007E0074B9847142003E05B080124012268
:100EB000B7E702B070BDC046050F0000000000207B
:100EC000450F000051250000E12400008423DB05CC
:100ED000DA6803781033012098401040431E98418F
:100EE000C0B27047037801331F2213408422D20519
:100EF000203189008B500378416808339B0099505A
:100F0000002070470C4B1B68002B10D1EFF31083AF
:100F1000002B09D172B6BFF35F8F0022074B1A7006
:100F20000132074B1A7002E00022054B1A70024A88
:100F30001368013313607047B400002014000020D0
:100F4000B8000020084B1A68013A1A601B68002B91
:100F500009D1064B1B78002B05D00122044B1A70D7
:100F6000BFF35F8F62B67047B4000020B800002066
:100F700014000020F0B583B001AC01256570002796
:100F8000A770257021000F20064EB0478022120264
:100F90008223DB059A612770657021001C20B04711
:100FA00003B0F0BD0115000003680A4A934206D160
:100FB000094A1369802149000B43136108E0074A7D
:100FC000934205D1044A1369802189000B431361C0
:100FD0007047C046001C004200080040002000424C
:100FE00070B50C0015000160A54B9847A54B002279
:100FF0001A702A781A70A44B9C423AD1A1491A203F
:10100000A24B98471A20A24B98479F4B99690222FE
:101010000A439A619F4A1204120C8020C0020243C4
:1010200084215A509C4A1204120C802189020A43DE
:1010300088215A50994A1204120C024318315A500E
:1010400097490904090C0143B0229950954A1204AA
:10105000120CAC215A5094490904090C934A1143CB
:10106000C0229950924A1204120C0243F0215A50A5
:101070003DE0904B9C4200D0FBE082491B20834B1B
:1010800098471B20824B98478A4B996902220A4352
:101090009A61894A1204120C8020C0020243842102
:1010A0005A50864A1204120C802189020A43882170
:1010B0005A50834A1204120C024318315A50814983
:1010C0000904090C0143B02299507F4A1204120C02
:1010D000AC215A507D490904090C744A1143C022BD
:1010E00099507B4A1204120C0243F0215A50794A5B
:1010F000BC23E25003220C33E250774BE361774B81
:10110000E360AB7B002B04D0E3688022120413431E
:10111000E3606B78002B03D0A26840231343A360E5
:101120006369AA7813436361EB78002B04D0A36949
:101130008022D2011343A3612B79002B04D0A36931
:10114000802292011343A3616B79002B04D0A36921
:10115000802252011343A361AB79002B03D1A26912
:1011600040331343A361EB79002B03D0A269102312
:101170001343A3612B7A002B03D0A26908231343E6
:10118000A3616B7A1B04F022120313400122134364
:1011900023622A7B6B7B13436A8912041343A36285
:1011A000EB7B1B02FE22D201134019002A7C7F2315
:1011B0001A400B001343A3646B7C1B0130211940C0
:1011C000AA7C92000C2313400B438022A350EB7C9B
:1011D000002B03D0A15802230B43A3502B7D002BDF
:1011E00004D08022A15801230B43A3509023AA6965
:1011F000E2502B7F002B05D0A022A35880210906A6
:101200000B43A350A02022586B7F1B06FE21C9056B
:101210000B4013432350AB7F002B05D0B022A358C3
:10122000802109060B43A350B0202258EB7F1B06F8
:10123000FE21C9050B40134323502023EB5C002BF8
:1012400005D0C022A3588021C9050B43A350F0202C
:1012500022582123EB5C1B06FC2189050B4013431C
:1012600023500323E365043BE022A3500432A35040
:1012700004E0A26902231343A36138E770BDC046AE
:10128000A90F000030060020001C0042512500007C
:10129000E12400003C0200201C0200204C0400203D
:1012A000BC0000209C030020BC02002000000202C1
:1012B0002C040020002000422C0200200C02002000
:1012C0002C0100209C0100202C0300204C02002057
:1012D0000C04002033030000030A0506330A000053
:1012E0000268936901218B439361016801228B6934
:1012F0001A42FCD17047C0460268916901230B4332
:1013000093610268012193691942FCD0916902231B
:101310000B43936102689369802149000B439361F9
:10132000026893690131FF310B4393617047C046F6
:1013300010B503680C48834208D108680B4BD200F3
:10134000D05049689A18516000200BE01720084CD3
:10135000A34207D10868074BD200D05049689A18B9
:101360005160002010BDC046001C00421C0200203D
:10137000002000420C02002010B50C0003680E494A
:101380008B420AD1D100891A8A000C4989181C2283
:1013900020000B4B984700200DE0172009498B4295
:1013A00009D1D100891A8A00074989181C22200016
:1013B000034B9847002010BD001C00429C030020F6
:1013C000993C0000002000422C03002010B50C00C6
:1013D00003680E498B420AD1D100891A8A000C4950
:1013E00089181C2220000B4B984700200DE0172085
:1013F00009498B4209D1D100891A8A000749891805
:101400001C222000034B9847002010BD001C004206
:101410004C040020993C0000002000422C010020D8
:1014200010B50C0003680E498B420AD1D100891A0D
:101430008A000C4989181C2220000B4B9847002079
:101440000DE0172009498B4209D1D100891A8A0081
:10145000074989181C222000034B9847002010BD23
:10146000001C0042BC000020993C0000002000420B
:101470009C01002030B503681D4DAB4219D10D68A9
:101480001C4CD000831A9B001D514D68831A9B0091
:10149000E3185D600B000833801A800008302218C2
:1014A0001C3118781070013301328B42F9D10020C1
:1014B0001DE01720104CA34219D10D680F48D4002D
:1014C000A31A9B001D504D68A31A9B00C3185D60B2
:1014D0000B000833A41AA4002200083282181C3121
:1014E00018781070013301328B42F9D1002030BDE1
:1014F000001C0042BC020020002000424C020020E0
:1015000000B583B001AB80221A700A785A704A780D
:101510009A708A78DA701900014B984703B000BDC1
:101520004D26000010B5490840230024814201D215
:101530000AE01C00091A631C9BB28842F9D94023B7
:10154000FF2C01D814800023180010BDF0B55F46B1
:1015500056464D464446F0B489B00C00059212AA96
:10156000117802004A434025A24200D9C6E0002B70
:1015700051D1020008000021644DA847834626008F
:1015800000270023002400930194002200233F2021
:1015900020218C461F3902960397202464420419A7
:1015A00003D40D00A540A84604E06446241A0D00AB
:1015B000E540A8460C008440A14614001D00A41874
:1015C0005D4122002B0046465F463E4203D00E009E
:1015D000264332002B00029C039D9D420FD801D16F
:1015E00094420CD8029C039D121BAB414D46009EB9
:1015F000019F35433C004646344300950194013831
:10160000CBD20022012300980199121A8B41120CAF
:101610001B041A436FE00022012B6CD1630F04936B
:10162000E30098460A0000230021384CA04704003C
:101630000D0000239C46069320339B4601266346FB
:10164000079300230293002200233F210094019579
:101650000F0020214942791803D430008840844685
:1016600004E05946C91B3000C84084463100B940E7
:101670008946100019008018594102000B004446A9
:101680004D462C40A2466446049D2C40A446544638
:1016900065462C4303D03400044322000B0000981D
:1016A000019999420AD801D1904207D8009801992E
:1016B000121A8B410299484601430291013FC8D258
:1016C000009C019D0299079A8B1ADB0810498B42F6
:1016D0000BD9069B0133DBB21900069313000133CB
:1016E00007930829ADD1402508E04025069A082A2D
:1016F00004D052031A43059B1A800025280009B024
:101700003CBC90469946A246AB46F0BD213A00004B
:10171000FF1F000010B582B004000E4B1B78002B99
:1017200001D000290DD001A90C7012200A4B984756
:1017300012200A4B9847074B5C7001221A70002058
:1017400006E0044B5B78834201D01D2000E00020BE
:1017500002B010BDBC04002051250000E1240000AF
:10176000444B984233D006D8434B98420DD0434B5C
:1017700098421BD06FE0424B98424AD0414B98426E
:1017800058D0414B984266D132E0012906D0002959
:1017900063D0022906D0032906D001E03B4867E068
:1017A000002065E03A4863E03A4861E0012906D04C
:1017B000002954D0022906D0032906D001E036487A
:1017C00056E0002054E0354852E0354850E0012909
:1017D00006D0002945D0022906D0032906D001E011
:1017E000304845E0002043E02F4841E02F483FE0EB
:1017F000012906D0002936D0022906D0032906D0B7
:1018000001E02B4834E0002032E02A4830E02A484A
:101810002EE0012906D0002927D0022906D003296D
:1018200006D001E0254823E0002021E024481FE005
:1018300024481DE0012906D0002918D0022906D02D
:10184000032906D001E0204812E0002010E01F48E4
:101850000EE01F480CE000200AE01E4808E01E4889
:1018600006E01E4804E01E4802E01E4800E01E4854
:101870007047C046000C00420004004200080042CD
:10188000001400420018004200100042030005004E
:10189000030006000300070002001100020012000E
:1018A0000200130002000D0002000E0002000F00F3
:1018B00002001700020018000200190003002900AE
:1018C00003002A0003002B00030023000300200074
:1018D00003002100030004000200100002000C00BD
:1018E00002001600030028000300220030B587B074
:1018F0000C4B6A4632CB32C232CB32C2009B83429F
:1019000006D001239A0069465258824203D100E072
:101910000023D8B203E00133062BF3D1002007B037
:1019200030BDC046F44E00007047C046F0B50A4BCB
:101930001B78002B0CD1094F094E0A4D0024DE51B3
:101940005A1914600433182BF9D10122024B1A7072
:101950008000024BC150F0BDBE040020C004002036
:10196000291900003406002010B582B004000622B8
:1019700005496846054B98472000054B98476B463C
:10198000185602B010BDC0460C4F0000993C000034
:10199000ED18000010B5024B1B680020984710BDE1
:1019A000C004002010B5024B5B680120984710BDB1
:1019B000C004002010B5024B9B680220984710BD60
:1019C000C004002010B5024BDB680320984710BD0F
:1019D000C004002010B5024B1B690420984710BDBD
:1019E000C004002010B5024B5B690520984710BD6C
:1019F000C0040020F0B55F4656464D464446F0B45C
:101A000091B005000C00160029600800CF4B9847E4
:101A1000052802D00700133700E0192722680523A4
:101A2000D20700D58AE122681733920700D585E1F5
:101A3000C749CA6901301B3B83401343CB610FA9DF
:101A400035239846F35C0B70FFB23800C14B9847C2
:101A50003800C14B98474346F05C0021BF4B984784
:101A6000F37A6B712C23F35CAB712D23F35CEB7178
:101A7000F37E2B722423F35C6B722B6802931800A5
:101A8000B24B9847133000220E2306A98C466344BC
:101A90001A80338A99468023DB01994519D004D8EE
:101AA00080239B0199450AD029E1C023DB01994598
:101AB0000AD080231B02994500D125E11FE11023A4
:101AC00006930F3B079323E108230693073B0793F5
:101AD0001EE133680593F3689B4673690393337E75
:101AE00004932E23F35C984673689A46002B15D016
:101AF00080235B059A4536D12F23F35C002B36D12A
:101B0000B36A1F00C0B2964B984701000E2206AB85
:101B10009C4662443800934B984725E0082306937F
:101B2000002307932F23F35C002B0BD0069B00931D
:101B3000079B0E2206A98C466244316BB06A8A4F1D
:101B4000B84711E0B36A1F00C0B2854B9847010047
:101B5000069B0093079B0E2206A884466244380029
:101B6000814FB84700E00020031E00D0E6E0737EFE
:101B7000002B02D0B37E029A93732A68029FD36926
:101B8000002BFCD102970E3306A98C4663441B88B8
:101B9000BB81059B5A461343039A13435246134392
:101BA0004A461343049A100203434246500718431F
:101BB0002F23F35C002B01D104331843717E89027B
:101BC0002423F35C5B0219432623F35C1B021943B5
:101BD0002C23F35C5B0419432D23F25C12041143A4
:101BE000F37A19433389FF2B04D080225204104327
:101BF000194305E0F37E002B02D08023DB04184359
:101C0000029FBB6807221340328C1343728C13432C
:101C1000BB60F269002A02D0544B184010433423B1
:101C2000F35C002B03D1524B9B789B0701D580239B
:101C300018432A68029FD369002BFCD179602A6877
:101C4000D369002BFCD138603A68F0231B051340A0
:101C5000E022D20493423FD0BB6807229343BB608B
:101C6000BA682523F35C07210B401343BB6033E0C4
:101C7000F9B2BB000AAA9858002802D120003D4BB7
:101C80009847431C05D03070000CC0B231003A4B6D
:101C900098470137042FEBD10023EB602B616B6178
:101CA000AB61EB612B62AB626B620022EB85AB85B3
:101CB0003033EA540133EA540133EA540133EA542D
:101CC0002868224B984704002C492D4B9847A400C4
:101CD0002C4BE550002331E00EAB80221A7000221D
:101CE0005A70DA709A70B36B0A93F36B0B93336C80
:101CF0000C93736C02930D9300270EAEB8E710237C
:101D000006930023079303E003230693002307931E
:101D100033680593F3689B4673690393337E04939A
:101D20002E23F35C984673689A46002B00D1F9E69F
:101D300080235B059A4500D1DEE618E7180011B054
:101D40003CBC90469946A246AB46F0BDED1800005B
:101D50000008004051250000E12400001517000094
:101D600075250000251500004D150000FFFFFFF050
:101D700000200041611700004D260000251E0000D4
:101D80002D19000034060020C2791C23002A0ED031
:101D9000C28D92B2173B002A09D10368DA69002A82
:101DA000FCD1198502211A7E0A42FCD000231800BA
:101DB0007047C04682791C23002A30D0828D92B2AF
:101DC000173B002A2BD10268107E400727D5D36924
:101DD000002BFCD1538BDBB258061DD0980703D5DE
:101DE0000223538318331AE0580703D5042353837F
:101DF0001A3314E0D80703D50123538312330EE0BE
:101E0000D80603D510235383323308E09B0603D54D
:101E100020235383213302E0138D0B80002318000D
:101E20007047C046F8B58000614BC5582C68E3691F
:101E3000002BFCD1237EA67D1E403023EB5C31229B
:101E4000AF5C1F40F30722D5EB8D9BB2002B1CD05B
:101E5000AA6A1378DBB2511CA9626979012901D001
:101E60009BB204E0517809020B430232AA62DB05FF
:101E7000DB0D2385EB8D013B9BB2EB85002B06D15F
:101E8000013323750133A37501E001232375B307E3
:101E900009D50223237500223133EA54FB0702D50A
:101EA0002800EB689847730763D5AB8D9BB2002B76
:101EB0005DD0638BDBB21A0702D47F22134001E0AE
:101EC000772213405A0601D540229343002B2CD091
:101ED0009A0705D51A223223EA54303B63831EE069
:101EE0005A0705D51E223223EA542E3B638316E09F
:101EF000DA0705D513223223EA54313B63830EE01F
:101F0000DA0605D542223223EA54223B638306E0F7
:101F10009B0604D541223223EA54123B63837B079C
:101F200027D528006B69984723E0238DDB05DB0D5F
:101F3000DAB2696A0A706A6A511C696269790129B0
:101F400004D11B0A53706B6A01336B62AB8D013B8A
:101F50009BB2AB85002B0CD10433237500222E33AA
:101F6000EA54BB0705D528002B69984701E00423F4
:101F70002375F30607D5102323752376FB0602D5B8
:101F80002800EB699847B30607D5202323752376ED
:101F90003B0702D52800AB699847330707D50823CC
:101FA00023752376BB0602D52B6A28009847F8BD17
:101FB0003406002010B5072803D880000F4B1B58AB
:101FC0009F46002018E00E4B586815E00D4B597DD8
:101FD0000907090F01310C480C4B98470CE0084BDE
:101FE000986809E0074B1B7F00209B0704D5044B32
:101FF000186801E08020000210BDC046144F0000A8
:10200000D804002000100040006CDC02F53600000F
:10201000F0B55F4656464D464446F0B483B0304F67
:10202000BB8A9C46457803785A425A419046837849
:102030009B46C378467A027A0092847A294A41689C
:102040009160C27A92009246827B5200914652463B
:1020500049460A439146427B92464A4651460A43C4
:102060006946CA71CA79BA75007BF8750120424683
:102070009200904604229146624649468A4394461D
:10208000424661460A4394460340DB0008229046DC
:10209000624641468A4313435946014009011022D2
:1020A00093430B43009A0240920140218B43134318
:1020B0000640F601802293433343793A15402D02BE
:1020C000094E33402B4304402003084C1C4004437A
:1020D000BC8203B03CBC90469946A246AB46F0BDDC
:1020E00000140040D8040020FFF8FFFFFFEFFFFFBF
:1020F000F8B50400C368027D012A04D1018A1800E2
:10210000284B98470300A26810011900254B9847F7
:102110000F26064000092378DA0163789B011343F8
:10212000DBB2214A13773104431E1B051B0D0B4301
:10213000136215002C2104226B5C1342FCD1A178A0
:102140000903E378DB00194323799B001943A37C3F
:1021500003273B401943258A2D04144A2B001340C2
:102160001943E37C1B02E022D20013401943227D75
:102170001201302313400B430B4A5362637D1F400F
:102180002823D75415002C2108226B5C1342FCD164
:1021900000018619E3685E43637D0433DE40044B2F
:1021A0001E60F8BDF5360000001000400000FF077B
:1021B000D8040020072803D88000184B1B589F46DE
:1021C000172029E0164A117D02230B4313750020C6
:1021D00022E0144A916902230B43936100201BE023
:1021E0000F4A118A02230B431382002014E00D4A88
:1021F000918A02230B43938200200DE0084A117F4D
:1022000002230B43137710002C210222435C13425C
:10221000FCD1002000E000207047C046344F000091
:102220000010004000140040F0B5474680B48EB066
:1022300003223F4B9A603F494B681B329343183A45
:1022400013434B600AA800230370802212024260ED
:1022500083700122C2708372C372037343738373EA
:102260000421417043720272334B98470520334B6F
:10227000984733490122CB681A42FCD0314B197D73
:1022800080220A431A7502225A751A009369002B9C
:10229000FCD12D4B984701AD0126029600246C70AD
:1022A0006C7205232B702E7229000120274B984653
:1022B00098470120264FB8476E606C702C726C7284
:1022C00007232B7029000820C0470820B84704A81E
:1022D0008470C47004711F4B836006824475C4749B
:1022E000847404700123437004751B4BC3601B4B43
:1022F00098470720114B9847124830210322435C2E
:102300001340032BFBD1023B154A137101A94B600B
:1023100000224A704A7207320A700B7200200B4B7F
:10232000984700200A4B98470EB004BC9046F0BD79
:10233000001800400040004111200000B5210000BD
:1023400000140040001000406523000089230000B5
:1023500035240000006CDC02FF7F0000F12000004B
:1023600000080040064A516980230B435361012253
:10237000044B1A7019000B781342FCD17047C04609
:1023800000080040001C004070B505000C784B7838
:10239000002B02D08023DB001C434B7A002B02D0A1
:1023A00080231B011C434A68012A17D9531E1A4275
:1023B0000FD1022A06D90223002001305B009A4285
:1023C000FBD800E0002080235B011C430004044391
:1023D00004E0120480239B001A4314430B7A002B61
:1023E00002D080239B011C430426AE400D490E4AB7
:1023F0004B6813401E42FBD10C4B9847AD00094B74
:102400009C466544286A80235B001840204328626C
:102410006146054A4B6813401E42FBD1044B984766
:1024200070BDC046001C0040FC070000050F000006
:10243000450F000010B504000422824009480A49F3
:1024400043680B401A42FBD1084B9847A400054B48
:102450009C466444236A8022520013432362044B47
:10246000984710BD001C0040FC070000050F00004D
:10247000450F0000F8B504000422824012481349B9
:1024800043680B401A42FBD1114B98470E4F08345A
:10249000A400E0594007400F0E4B98470600E5594D
:1024A000ED04ED0FE459240C0B4B9847002D07D198
:1024B000012C07D921003000084B9847060001E0A5
:1024C0000134E6403000F8BD001C0040FC0700006D
:1024D000050F0000B51F0000450F0000F536000095
:1024E00010B50400094B9847A000094B9C46604476
:1024F0008022815840230B4383508021403A435827
:102500001A42FCD0034B984710BDC046050F00008F
:10251000001C0040450F000010B50400094B98470F
:10252000A000094B9C4660448022835840218B4385
:1025300083504031403A43581A42FCD1034B9847EC
:1025400010BDC046050F0000001C0040450F0000F4
:1025500070B504000D00054B98472B780F221340EF
:102560002034A400024AA35070BDC04619250000C3
:10257000001C004010B50400064B98472034A4000E
:10258000054BE4582407240F044B98472000044BC4
:10259000984710BD050F0000001C0040450F0000CB
:1025A0007524000030B5D378002B1ED11378802B12
:1025B00004D01B0680246402234300E000235478E7
:1025C0000225AC430AD19478002C03D18024A402C4
:1025D000234302E0C024E402234341605478013CD9
:1025E000012C12D8184C23400FE041600B041B0C47
:1025F000A024E405234383620B0CD0242406234348
:102600008362D378002B18D01CE00C04240CA02586
:10261000ED052C431C4384620C0CD0252D062C4365
:102620001C438462D478002C0CD15B0305D59378CD
:10263000012B01D1816100E041615378013B012B05
:1026400000D8816030BDC046FFFFFBFF10B503001E
:102650000A00C1090020002905D15809C0018221C2
:10266000C9058C4660441F210B401E399940014B1F
:10267000984710BDA52500007047C04610B5054B12
:102680009847054B9847054B9847054B9847054B8E
:10269000984710BD29220000750F0000D90D0000D9
:1026A0007926000079260000FEE7C04610B51B4BD6
:1026B0001B4A9A4203D01B4B184A9A4204D31A4B26
:1026C0001A4A9A4210D31EE0194A164B03339B1A3A
:1026D0009B0801339B000022104811498C588450FC
:1026E00004329A42FAD1EAE7124A0F4B03339B1A9B
:1026F0009B0801339B0000220C4800211418216024
:1027000004329A42FAD10C4AFF210C4B8B4393605E
:102710000B4B98470B4B9847FEE7C0460000002044
:10272000B052000098000020D80600209800002039
:10273000040000209C00002000ED00E000000000EC
:102740004D3C000015340000F0B5474680B40C0045
:10275000904600280DD1002A0EDD8F18084E094D35
:10276000306821002B6898470134A742F8D14046D1
:1027700003E00120404200E0002004BC9046F0BD90
:10278000540600204C060020F0B5474680B40E00E9
:1027900015000138022811D8002A12D000240C4B51
:1027A00098460C4F43461868315D3B6898470028AF
:1027B00009DB0134A542F5D1200006E001204042AA
:1027C00003E0002001E00120404204BC9046F0BD3F
:1027D00054060020500600200300064A1268002A12
:1027E00002D10549034A1160024A1068C3181360F8
:1027F0007047C046E4040020D82600200120404253
:102800007047C04680239B014B6000207047C04644
:1028100001207047002070477047C04610B588B04F
:102820000023019388231B040293019BC000C0086E
:102830008022D205134318430190BF231B04029347
:1028400003AB08A80A781A70013101338342F9D129
:10285000074C002201A92000064B984723689A697B
:10286000920702D40121D022995008B010BDC04671
:10287000980500207514000030B589B006AC210021
:102880001F48204B984720490A88204B100A18708F
:102890005A701F4A1088050A9D70D8701D4800881C
:1028A000050A1D7158711C48007898711B48007802
:1028B000D8711B4800781872E088050A5D7298721A
:1028C0006079D87220791873A078587360789873FB
:1028D0002078D87300230B80138001AB10221A706C
:1028E0005A700023094801AAD218195C917001336B
:1028F000102BF8D101A90B480B4B984709B030BDFC
:10290000580600208D080000080600203C05002025
:102910004C050020AE06002055050020F0050020E3
:1029200056050020A50000101D28000010B588B035
:1029300006AC21001248134B9847E288124B110A4B
:1029400019705A7062799A702279DA70A2781A71C5
:1029500062785A7122789A7101AB11221A700A3A80
:102960005A700023084801AAD218195C91700133EB
:10297000102BF8D101A90548054B984708B010BDA8
:10298000580600208D080000A0050020A5000010BA
:102990001D28000030B583B000236A46D3700E486E
:1029A000017809024378591889B26B46D180827840
:1029B0005A71C3786C46237104796D46AC704479C2
:1029C0006C70807928700548054CA0476946054819
:1029D000054B984703B030BDAC050020584F0000B0
:1029E000BD3C0000580600206D08000070B582B0A4
:1029F00005000E0000226B46DA80064C6B46991DDE
:102A00002800A0470028F9D16B4606331B88337095
:102A100002B070BDB51D000070B505008CB2034E4C
:102A200021002800B0470028FAD170BD891D0000A0
:102A300070B5074C00232370A3706370210014202D
:102A4000044DA8470123237021001520A84770BD1D
:102A5000980600200115000030B58DB001AC2000B3
:102A6000194B9847002323700333A370013B637015
:102A700006332371C0235B01E38004236375134D88
:102A8000220013492800134B98472C68238C9BB2D3
:102A9000002BFBD12000104B9847104B1B5C1F22D2
:102AA0001A40012393400E4A136007232371A37138
:102AB0002278053B13432370044B1A68138C9BB296
:102AC000002BFBD10DB030BD49010000B006002045
:102AD000004800428D0100001D010000544F00001D
:102AE00000E100E070B5584B1B78002B43D1002269
:102AF000564B1A80564B1868038C9BB2002BFBD1A7
:102B000003891F2293431B3A13430381038C9BB217
:102B1000002BFBD1038C9BB2002BFBD1027E023336
:102B200013430376038C9BB2002BFBD101210425B8
:102B300002248379DBB20A001A401D4200D02243EE
:102B40001C4200D02A431142F3D0818C89B2414B00
:102B50001980012383718279D2B21340540701D5C1
:102B600002242343920701D5042213435B0746D571
:102B70000223837143E00022364B1A80344B1868DD
:102B8000038C9BB2002BFBD103891F2293431A3A7B
:102B900013430381038C9BB2002BFBD1038C9BB2AC
:102BA000002BFBD1027E023313430376038C9BB2CE
:102BB000002BFBD10121042502248379DBB20A001A
:102BC0001A401D4200D022431C4200D02A43114229
:102BD000F3D0818C89B21D4B1980012383718279D6
:102BE000D2B21340540701D502242343920701D5E2
:102BF000042213435B0714D50223837111E01648A6
:102C0000164B984716491348028800230C684D68F4
:102C100012196B410A604B60124A1368013313604A
:102C200010E011480D4B98471049084802880023CE
:102C30000C684D6812196B410A604B600C4A1368AE
:102C40000133136070BDC046560500209406002075
:102C5000B0060020AC060020744F0000BD3C000010
:102C6000E805002000050020A04F0000F00400202F
:102C7000A8050020174B1B78012B15D1164B1B887C
:102C8000FF2B06D90122154B1A700022144B1A7023
:102C90001DE01F2B1BD80023104A13700E4A13800F
:102CA00001220F4B1A7012E00E4B1B88FF2B06D926
:102CB00002220A4B1A7000220B4B1A7007E0002305
:102CC000064A1370074A13800122074B1A70034B00
:102CD000187870475605002094060020F005002063
:102CE00092050020AC0600200405002010B58223C8
:102CF000DB05196AC902C90F094C217009480A4B42
:102D000098472378002B05D0802292038223DB058D
:102D10009A6104E0802292038223DB055A6110BD90
:102D200056050020C84F0000BD3C000010B504004F
:102D300001210D4B9847002814D00C4B98470C4BA1
:102D400098470C4B98470C4B18700C4B1B788342E0
:102D500004D001220A4B1A70084B18700121200080
:102D6000084B984710BDC0462D0D0000ED2C00000B
:102D7000E52A0000752C0000F1050020C4050020A4
:102D800096050020610D0000144B1978144A11704B
:102D90005978144A11709978134B1970002905D08D
:102DA0000E48C31C114A0331401804E00B4B1900B4
:102DB0001431002206E01978117001330132834288
:102DC000F9D1F3E71A7001338B42FBD10022084B93
:102DD0001A700132074B1A707047C046F405002084
:102DE000540500209C050020F8040020AC050020BC
:102DF000E80400204E05002010B50122124B1A7085
:102E00000022124B1A70124C21781248124B98472C
:102E10002378012B06D1114B1B789B00104A9B583D
:102E2000984707E0022B05D10C4B1B789B000D4AFD
:102E30009B5898470023064A1370084A13700A4AA1
:102E40001370014A137010BD970500204E05002035
:102E500054050020E04F0000BD3C00009C05002010
:102E60002C00002018000020F804002070B5040099
:102E70004448454B9847454B1A68002A25D0444D95
:102E8000002328686968434EB04780B2424B1880DF
:102E9000002200232A606B603C4B1A603F4B1B886A
:102EA000C31A14339BB2282B04D901323C4B1A703D
:102EB0003A4B18803B4D3C4B58433C493C4B984760
:102EC00060432B689C46604428603A4B1A68002A8D
:102ED00025D0394D0023286869682E4EB04780B24E
:102EE000364B1880002200232A606B60314B1A6039
:102EF000334B1B88C31A14339BB2282B04D90132DD
:102F0000274B1A702E4B1880264DFA239B005843EE
:102F10002C49274B984744432B681C1B2C60214BA2
:102F20001868294B1B68984203D9284A1278012A4D
:102F300006D04242934208D2254B1B78012B04D184
:102F4000C21783185340234A1360002808DD642306
:102F50005843204B1968204B9847204B18700FE0BE
:102F60001C4B19684018642358431B4B984740B2C8
:102F7000002802DD194B187002E00122174B1A706D
:102F800070BDC046F44F0000B53D0000A80500200C
:102F9000F0040020E139000008060020940500201C
:102FA00096050020C005002010270000B5AF0400E2
:102FB0000938000000050020E80500204C0500202D
:102FC00090050020FB4F0000240000200405002095
:102FD0009205002020000020F53600005505002055
:102FE00070B5204A517801230B4353709368002B2E
:102FF000FCD11D4D1D4C2800A0470028FBD11C48CA
:103000001C4CA047184B19681B48A0471B4B1B784A
:10301000012B0AD11A4C20781A4B984701232370B0
:10302000194B98470022154B1A70184C0123237234
:1030300020781430C0B2164D3C21A847C8B2207089
:103040000A21A847C9B2002902D101220B4B1A70EC
:103050000B4A13780133137000220C490D480E4BB4
:10306000984770BD00300040D0060020550B00008E
:1030700010500000BD3C00002050000096050020CC
:10308000280000206D2E0000792800009C060020FA
:103090000138000058060020A5080000F0B54F4692
:1030A0004646C0B485B08B4B1B681A6D0392039AD9
:1030B000120366D5802212031A6500230293029B35
:1030C000032B5ED8834B99469846834F029A1F2A5A
:1030D0000AD8982349460968C958973B93400B4042
:1030E0005A1E9341DBB20AE09C2341460968C95845
:1030F000203A9B3B93400B405A1E9341DBB2002B7E
:1031000039D0029B0193029B1F2B07D8714A11688B
:1031100001229A40130098228B5007E06D4A1168F3
:10312000203B01229A4013009C228B50019A3900C7
:1031300068486A4B98473B685B0003D56848694B11
:10314000984702E06848674B984700230293029B28
:10315000132B0DD8604E654D654C029BF318197A00
:103160002800A047029B01330293029B132BF4D942
:1031700060485C4B9847029B01330293029B032BF0
:10318000A4D9039BDB0753D5524D2B6801221A6546
:10319000594C226859492800594B98472368296897
:1031A0003F22134069328B50236801332360236828
:1031B000042B02D10022504B1A60504B5B689B02DB
:1031C00016D55048474B984700230293029B132B78
:1031D0002BD84A4E454C464D029BF318197A2000D5
:1031E000A847029B01330293029B132BF4D91CE0E6
:1031F00045483C4B984700230293404B5B681B03B8
:103200001B0F029A934210D93C4D384C384E029B0A
:10321000EB18197A2000B047029B013302936B68C8
:103220001B031B0F029A9342F1D832482D4B98474B
:10323000039BDB063AD5274D2B6810221A65334CC9
:10324000226833492800334B9847236829683F2276
:10325000134069328B502368013323602368042BA9
:1032600002D10022294B1A602B481E4B984700239D
:103270000293029B132B13D8284E254D1B4C029A08
:10328000029BEB181B7AB354029BEB18197A2000AF
:10329000174B9847029B01330293029B132BEED9E5
:1032A00001221F4B1A7013480E4B9847039B1B01BA
:1032B00002D4039BDB0007D5064B1B68C0225205D6
:1032C0001A651848074B984705B00CBC90469946BC
:1032D000F0BDC04698050020C80500207913000005
:1032E00028500000B53D000070500000B8500000AC
:1032F000BD3C0000C05000005005002058050020D3
:10330000CD130000C450000008510000FC04002050
:10331000740500202114000050510000F405002025
:10332000E80400209451000010B588B003AAB0232F
:103330001B01138000239370FA21C900918001249E
:103340009471D372D4701372537293721473547352
:10335000FC23DB00D381147414491548154B98479E
:103360006B461C721A78531E9A41D2036B465B78E7
:10337000002B02D080235B001A4300230124FF208E
:10338000190069448978002903D02100994001403F
:103390000A430133082BF3D10548036859680A43EF
:1033A0005A60054B984708B010BDC0460024004045
:1033B00058060020E50800006507000010B5054C20
:1033C000082205492000054B984708212000044B9E
:1033D000984710BD58060020E12F00006109000049
:1033E0008109000000B589B001A8074B984701A8E2
:1033F000064B9847064A117802230B4313709368D3
:10340000002BFCD109B000BD210B0000690A0000AF
:1034100000300040F0B599B0864B98470124864BA8
:103420001C70BFF35F8F62B601AA8023DB05019396
:1034300000235360FF2111819372D3729621890179
:1034400091622C21545401315454013153540131AF
:1034500053541363053153540131535453610021C4
:103460001382D176D3611384538411762433D154DB
:103470005176113B93761333D154013BD154C4237D
:103480009B03D36001235B429363D3636B4B136451
:103490006B4B53646B4D6C4B1D606C496C4B1960EE
:1034A0006C496D4B19606D4928006D4B98476D4F05
:1034B0003B68986800216C4EB0473B685868002113
:1034C000B0472E683000694B98471F23184084404E
:1034D000674B1C602B68DA69002AFCD13268022332
:1034E00013433360634B984701AC2000624B98470D
:1034F0000C23A3700B3B237000236370E370210047
:1035000016A85E4B9847052116A85D4B98475D4964
:1035100013A85D4B984713A916A85C4B9847012147
:1035200016A85B4B98475B4B98475B4B98475B48AB
:103530005B4B98475B4B98475B4B98471423013B89
:10354000002BFCD100246B465C7001259D70DC7063
:1035500006271F7069461820544EB0476B461F70EF
:1035600069461920B04701AA08231370547094705B
:10357000D570157155719571D47114725472093BDF
:103580005381147354739473D47314740333537446
:103590009374D5741575464B936115775477957769
:1035A000D4772023D4540133D454424C42492000D0
:1035B000424B98472000424B98472000414B984788
:1035C000802212022A4B1A602268536DC0214905DD
:1035D0000B4353653C4C16A8A0470028FBD1802321
:1035E000DB050193394B0293019B5B0F5B07384A64
:1035F000134301932F4C012201A92000354B98471A
:103600002268516D10230B435365334D334C344EB8
:103610002B78012B03D12000B047324B9847324B17
:103620001B78002BF4D1314B1B78012BF0D1304BA0
:103630009847EDE77D2600001400002003002A00D3
:1036400003002B000805002054060020192A000062
:1036500050060020ED2900004C0600200014004216
:10366000F519000094000020C93D00006919000010
:1036700000E100E0312A0000F90D00000D0E00000D
:10368000E50E00002D2D0000B90C0000C50C000057
:10369000F90C000029330000BD330000580600205B
:1036A00065070000E5330000592A00004D260000A0
:1036B000FFFFFF1F98050020001C0042E10F0000E3
:1036C000F9120000E1120000CD0E0000FFFFFF9F85
:1036D0009600001031130000E8040020D8510000CB
:1036E000B53D0000892D0000970500204E05002003
:1036F000F92D0000002243088B4274D303098B424A
:103700005FD3030A8B4244D3030B8B4228D3030CB1
:103710008B420DD3FF22090212BA030C8B4202D353
:103720001212090265D0030B8B4219D300E0090A7B
:10373000C30B8B4201D3CB03C01A5241830B8B4284
:1037400001D38B03C01A5241430B8B4201D34B036D
:10375000C01A5241030B8B4201D30B03C01A5241D2
:10376000C30A8B4201D3CB02C01A5241830A8B4257
:1037700001D38B02C01A5241430A8B4201D34B0240
:10378000C01A5241030A8B4201D30B02C01A5241A4
:10379000CDD2C3098B4201D3CB01C01A5241830958
:1037A0008B4201D38B01C01A524143098B4201D392
:1037B0004B01C01A524103098B4201D30B01C01ABD
:1037C0005241C3088B4201D3CB00C01A5241830837
:1037D0008B4201D38B00C01A524143088B4201D364
:1037E0004B00C01A5241411A00D2014652411046C4
:1037F0007047FFE701B5002000F0F0F802BDC046B9
:103800000029F7D076E7704703460B437FD40022A8
:1038100043088B4274D303098B425FD3030A8B4264
:1038200044D3030B8B4228D3030C8B420DD3FF22CE
:10383000090212BA030C8B4202D31212090265D09C
:10384000030B8B4219D300E0090AC30B8B4201D34F
:10385000CB03C01A5241830B8B4201D38B03C01A96
:103860005241430B8B4201D34B03C01A5241030B0D
:103870008B4201D30B03C01A5241C30A8B4201D3BE
:10388000CB02C01A5241830A8B4201D38B02C01A69
:103890005241430A8B4201D34B02C01A5241030AE0
:1038A0008B4201D30B02C01A5241CDD2C3098B42C5
:1038B00001D3CB01C01A524183098B4201D38B0142
:1038C000C01A524143098B4201D34B01C01A5241E5
:1038D00003098B4201D30B01C01A5241C3088B422A
:1038E00001D3CB00C01A524183088B4201D38B0015
:1038F000C01A524143088B4201D34B00C01A5241B7
:10390000411A00D201465241104670475DE0CA0F8D
:1039100000D04942031000D34042534000229C464D
:1039200003098B422DD3030A8B4212D3FC22890157
:1039300012BA030A8B420CD3890192118B4208D32D
:10394000890192118B4204D389013AD0921100E08F
:103950008909C3098B4201D3CB01C01A52418309A3
:103960008B4201D38B01C01A524143098B4201D3D0
:103970004B01C01A524103098B4201D30B01C01AFB
:103980005241C3088B4201D3CB00C01A5241830875
:103990008B4201D38B00C01A5241D9D243088B42CB
:1039A00001D34B00C01A5241411A00D2014663466E
:1039B00052415B10104601D34042002B00D54942D2
:1039C000704763465B1000D3404201B5002000F011
:1039D00005F802BD0029F8D016E770477047C046C9
:1039E000002B11D1002A0FD1002900D1002802D0CC
:1039F0000021C943081C07B4024802A140180290E4
:103A000003BDC046D9FFFFFF03B4684601B5029865
:103A100000F032F8019B9E4602B00CBC7047C046D5
:103A2000F0B54F464646C0B41604360C99463300EE
:103A300005042C0C070C150C63437E436F43654350
:103A40001C0CAD1964199C46A64203D980235B0265
:103A5000984647446346250CEF191D044B464A43DC
:103A600043432D0C240464199918C91920000CBC77
:103A700090469946F0BDC046F0B54D465646444680
:103A80005F46F0B4924683B004000D0099468B4225
:103A90002FD82CD04946504600F0AEF82900060039
:103AA000200000F0A9F8331A9846203B9B4600D529
:103AB00074E053465A4693401F0053464246934093
:103AC0001E00AF4229D826D05B46A41BBD41002B67
:103AD00000DA79E0002200230092019301235A4684
:103AE00093400193012342469340009319E08242A0
:103AF000D0D900220023009201930C9B002B01D00F
:103B00001C605D600098019903B03CBC90469946EA
:103B1000A246AB46F0BDA342D6D9002200230092B4
:103B200001934346002BE8D0FB0772081A43464630
:103B30007B080EE0AB4201D1A2420CD8A41A9D41F1
:103B4000012024196D410021013E24184D41002E11
:103B500006D0AB42EED9013E24196D41002EF8D1BA
:103B60005B460098019900196941002B22DB2B006C
:103B70005A46D3402A004446E2401C005B461500EA
:103B8000002B2CDB26009E40330026004746BE401B
:103B90003200801A994100900191AEE742462023FD
:103BA0009B1A5246DA40414613004A468A401700A3
:103BB0001F4382E7424620239B1A2A0046469A402A
:103BC0002300F3401343D5E74246202300219B1AEC
:103BD0000022009101920122DA40019282E74246DE
:103BE000202326009B1ADE402F00B44697406646ED
:103BF0003B003343C9E7C04610B5002903D100F0AC
:103C000007F8203002E0081C00F002F810BDC046A2
:103C10001C2101231B04984201D3000C10391B0AFC
:103C2000984201D3000A08391B09984201D30009C0
:103C3000043902A2105C40187047C0460403020217
:103C40000101010100000000000000000E4B70B5F2
:103C500000251E000D4CE41AA410A54204D0AB00B0
:103C6000F35898470135F8E701F00EFB084B0025A3
:103C70001E00084CE41AA410A54204D0AB00F3586F
:103C800098470135F8E770BD945200009452000047
:103C90009452000098520000002310B59A4203D0BD
:103CA000CC5CC4540133F9E710BD03008218934281
:103CB00002D019700133FAE7704700000FB40B4BC4
:103CC00013B51C68002C05D0A369002B02D120007D
:103CD00000F0F6FA05AB049AA1682000019300F009
:103CE000B5FC16BC08BC04B01847C04694000020C0
:103CF00070B505000E00002804D08369002B01D1A7
:103D000000F0DEFAAB69AC68002B02D1280000F0AD
:103D1000D7FA254B9C4201D16C6808E0234B9C42AA
:103D200001D1AC6803E0224B9C4200D1EC68A3892E
:103D30001B0702D52369002B11D12100280000F0B8
:103D400055F900280BD0012040422BE0013B013601
:103D5000A360002B08DB23685A1C2260197031789D
:103D6000A3680029F2D10BE0A269934201DB0A2982
:103D7000F1D12200280000F0E1F8431CEFD1E2E786
:103D8000013BA360002B08DA22000A31280000F072
:103D9000D5F8431CD7D00A2004E00A2023685A1C17
:103DA0002260187070BDC046F4510000145200002B
:103DB0003452000010B5034B01001868FFF798FF5C
:103DC00010BDC046940000204A424A41802310B5ED
:103DD0005200DB0000F002F810BD0000F0B51D003D
:103DE000514B85B01E6804000F000092002E05D0D4
:103DF000B369002B02D1300000F062FA4B4B9C42B9
:103E000001D1746808E04A4B9C4201D1B46803E0D8
:103E1000484B9C4200D1F468009B022B05D0012B3B
:103E200000D97CE0002D00DA79E02100300000F0BC
:103E3000D9F9616B002908D023004433994202D09C
:103E4000300000F03FFB002363630023A361636045
:103E5000A3891B0603D52169300000F033FBA2893A
:103E6000354B1340A381009B022B21D003AB02AA48
:103E70002100300000F0B8FAA3891843A081002D7A
:103E800001D1029D01E0002F25D1280000F010FB98
:103E90000195071E1AD1029B0193AB4202D101206A
:103EA000404206E0019800F003FB071E0ED1F6E742
:103EB00000200222A3891343A3810023A3602300CF
:103EC000473323602361012363612AE08022A389B1
:103ED000019D1343A381B369002B02D1300000F090
:103EE000EFF9009B012B03D1A389009A1A43A28109
:103EF0000823A2892760134027616561181E0CD032
:103F000001231A400023101E984204D06D42A36082
:103F1000A561180005E0A56003E0A36001E00120B1
:103F2000404205B0F0BDC04694000020F4510000AE
:103F300014520000345200005CF3FFFFF8B5050096
:103F40000F001400002804D08369002B01D100F079
:103F5000B7F9234B9C4201D16C6808E0214B9C428D
:103F600001D1AC6803E0204B9C4200D1EC68A3690E
:103F7000A360A3891B070AD52369002B07D02368F8
:103F80002269FEB2981A636998420FDB08E02100AB
:103F9000280000F02BF80028F1D0012040421DE05D
:103FA0002100280000F01EF90028F6D1A368013096
:103FB000013BA36023685A1C22601F70636998420A
:103FC00005D0A3893000DB0708D50A2E06D12100D1
:103FD000280000F007F90028DFD13000F8BDC04606
:103FE000F45100001452000034520000364B70B5FA
:103FF0001D6806000C00002D05D0AB69002B02D116
:10400000280000F05DF9314B9C4201D16C6808E05A
:104010002F4B9C4201D1AC6803E02E4B9C4200D157
:10402000EC680C22A35E9AB2110723D4D10607D400
:1040300009220120326037321343A381404242E01B
:10404000530713D5616B002908D0230044339942EC
:1040500002D0300000F036FA002363632422A389E3
:104060009343A38100236360236923600822A3890B
:104070001343A3812369002B0BD1A023A2899B00AA
:10408000134080229200934203D02100300000F0C0
:10409000D1F90123A289134005D00023A3606369ED
:1040A0005B42A36103E0920700D46369A360002030
:1040B0002369834207D10C22A35E1A0603D540224E
:1040C0001343A381013870BD94000020F451000017
:1040D0001452000034520000F7B58A8905000C0024
:1040E00013075AD44B68002B02DC0B6C002B19DD34
:1040F000E76A002F16D000232E682B6080235B0117
:104100001A4001D0606D14E00123216A2800B847ED
:10411000431C0ED12B68002B0BD01D2B01D0162B6E
:1041200002D12E6000205AE04022A3891343A381CC
:1041300055E0A3895B0706D56368C01A636B002B43
:1041400001D0236CC01A00230200216A2800E76A0C
:10415000B847A389421C06D129681D293AD8204AAC
:10416000CA40D20736D50022626022692260DB0491
:1041700005D5431C02D12B68002B00D16065616B13
:104180002E600029CED023004433994202D028006B
:1041900000F098F90020606321E00F69002FC1D082
:1041A0000B680F60DB1B01930023920700D14B6962
:1041B000A36003E0019B3F181B1A0193019B002B96
:1041C000B0DD019B3A00216A2800A66AB0470028AA
:1041D000F0DCA389402201201343A3814042FEBDAD
:1041E000010040200B6970B505000C00002B01D1C7
:1041F00000201CE0002804D08369002B01D100F0CE
:104200005FF80B4B9C4201D16C6808E0094B9C4263
:1042100001D1AC6803E0084B9C4200D1EC680C2251
:10422000A35E002BE4D021002800FFF755FF70BDEE
:10423000F4510000145200003452000010B502493D
:1042400000F0B0F810BDC046E5410000002310B5F5
:10425000040003604360836081814366C28103611F
:1042600043618361190008225C30FFF71EFD054B96
:1042700024626362044BA362044BE362044B236336
:1042800010BDC046C94B0000F14B0000294C000096
:10429000554C000070B568254B1E5D430E0029008B
:1042A000743100F055F9041E08D000212A00016085
:1042B00046600C30A0606832FFF7F7FC200070BD4C
:1042C000836913B50400002B28D18364C36403659C
:1042D000134B144A1B6882620193984201D1012357
:1042E0008361200000F020F86060200000F01CF8DE
:1042F000A060200000F018F80022E060042160684F
:10430000FFF7A4FF01220921A068FFF79FFF022207
:104310001221E068FFF79AFF0123A36113BDC04695
:10432000F05100003D420000F8B51D4B06001D682D
:10433000AB69002B02D12800FFF7C2FF4835AC68FB
:104340006B68013B05D40C22A75E002F10D06834A7
:10435000F7E72B68002B01D02D68F0E7042130002F
:10436000FFF798FF28600028F6D10C23336016E091
:10437000012320005B42E3810233A381676627604B
:10438000A760676027616761A7615C300822390018
:10439000FFF78BFC20006763A763A764E764F8BDA1
:1043A000F0510000F7B504000700002601914834E1
:1043B000002C16D06368A5680093009B013B009316
:1043C0000DD4AB89012B08D90E22AB5E013304D08A
:1043D00029003800019B984706436835EDE72468BB
:1043E000E6E73000FEBD000070B50E001D000E2394
:1043F000C95E90B01400002906DA00232B60B3894F
:104400001B060FD540230FE001AA00F04FFC002847
:10441000F3DBF023029A1B021340054A9B185A4211
:1044200053412B608023DB000020236010B070BD5F
:1044300000E0FFFFF7B502268B8905000C00334230
:1044400010D101AB6A46FFF7CFFF009907002800A3
:1044500000F07EF800280CD10C22A35E9A0523D42C
:104460003343A38123004733236023610123636126
:104470001AE080220D4BAB62A38920601343A38115
:10448000009B20616361019B002B0AD00E23E15E3B
:10449000280000F01DFC002803D00122A38913434B
:1044A000A381A3891F43A781F7BDC0463D420000F9
:1044B00010B5034B0100186800F04AF810BDC04663
:1044C0009400002030B500293ED004390B68002B41
:1044D00000DAC9181D4A13681400002B02D14B6082
:1044E000116031E08B420DD90A688818834203D1EC
:1044F00018685B6882180A604B60216024E08A4279
:1045000003D813005A68002AF9D11D685C198C423F
:104510000BD10968691858181960824214D11068C3
:104520005268411819605A600EE08C4202D90C237F
:10453000036009E008680C18A24203D114685268AD
:10454000201808604A60596030BDC046100600203F
:10455000032370B5CD1C9D43083506000C2D01D2F8
:104560000C2505E0002D03DA0C230020336040E029
:10457000A942F9D81F4B1C681A002100002913D04A
:104580000B685B1B0DD40B2B02D90B60CC181EE003
:104590008C4202D1636813601AE04B6863600C00C0
:1045A00016E00C004968E9E7134C2368002B03D19F
:1045B000300000F0F7FA20602900300000F0F2FA35
:1045C000431CD1D00323C41C9C43A0420AD12560C4
:1045D000200007220B30231D9043C31A09D05A42F2
:1045E000E25006E0211A300000F0DCFA431CEED164
:1045F000BAE770BD100600200C060020936810B5C5
:10460000013B9360002B05DA9469A34208DBCBB22F
:104610000A2B05D01368581C10601970C8B201E04D
:10462000FFF78CFC10BDF8B506000F001400D5187C
:10463000AC4208D021783A003000FFF7DFFF0134A8
:10464000431CF5D100E00020F8BD0000F0B59FB09C
:1046500006000F0002920593002804D08369002B06
:1046600001D1FFF72DFE7F4B9F4201D1776808E013
:104670007D4B9F4201D1B76803E07C4B9F4200D144
:10468000F768BB891B070AD53B69002B07D00023BD
:1046900006AD6B6120336B761033AB763DE03900AD
:1046A0003000FFF7A3FC0028F1D001204042D6E003
:1046B000059A111D12680591002A00DA7FE009921F
:1046C000013423782E2B00D18DE021780322684815
:1046D00000F024FB002807D0654B2A68C01A40234D
:1046E000834013432B6001342178631C0622614808
:1046F0000293297600F012FB002800D19DE05E4B6A
:10470000002B00D090E00722059B0733934308332A
:1047100005936B69039A9B186B61029C2378002BAD
:1047200004D1029BE31A049312D003E0252BF8D0A6
:104730000134F3E7049B029A39003000FFF773FF5E
:10474000431C00D186E06A69049B944663446B6114
:104750002378002B7ED00122002352426A6002A9F6
:104760005432521801342B60EB60AB601370AB65B0
:1047700021780522414800F0D1FA002808D03F4BAB
:104780002A68C01A0123834013432B600134EFE7EA
:104790002B68DA0604D55322202102A812181170C2
:1047A0001A0704D553222B2102A81218117022785F
:1047B0002A2A00D17CE7099B00200A2105E0524209
:1047C000EA60022213432B607AE72278303A092A02
:1047D00004D84B4301349B180120F6E7002800D190
:1047E0006FE709936DE763782A2B0AD1059B0234A2
:1047F0001A1D1B680592002B01DA01235B42079307
:1048000063E700230A201A0001346B6021783039F5
:10481000092904D84243013452180123F6E7002B3A
:1048200000D152E7079250E705AB00933A00144BD2
:104830002900300000E000BF07E005AB00933A001C
:104840000F4B2900300000F08BF80390039B0133DD
:1048500000D05EE7BB895B0600D526E70B981FB04A
:10486000F0BDC046F4510000145200003452000064
:104870005A5200005E520000000000005452000036
:1048800027460000F7B5170001938A680B6900906E
:104890000C00934200DA130022003B60433212788E
:1048A000002A01D001333B6023689B0602D53B6898
:1048B00002333B60062523681D401ED0230043338E
:1048C0001B785A1E9341226892061CD53020E118AD
:1048D0004331087021005A1C45310978A21843322F
:1048E000023311700FE02200012319320199009860
:1048F000089EB047431C0ED00135E3683A689B1A06
:104900009D42F0DBDAE72200019943320098089DCE
:10491000A847431C02D10120404220E00623206822
:10492000E1683A6803400025042B03D18D1AEB435C
:10493000DB171D40A3682269934201DD9B1AED1825
:104940000027BD420AD0220001231A3201990098A3
:10495000089EB047431CDED00137F2E70020FEBDC1
:10496000F0B58BB006920A0043320793059004928B
:104970000A7E0C00109B6E2A00D1ABE011D8632A8E
:1049800022D009D8002A00D1B5E0582A00D0C5E0CD
:1049900045310A70814A4FE0642A1DD0692A1BD034
:1049A000BCE0732A00D1AAE009D86F2A29D0702A66
:1049B00000D0B3E0202209680A43226037E0752A5C
:1049C0001FD0782A33D0A9E00E001A684236111D94
:1049D000196013683370A4E021681A68080606D4C9
:1049E000490604D5111D19600023D55E02E0111D92
:1049F00019601568002D3BDA2D23049A6D4213705F
:104A000036E021681A68080606D4490604D51568F8
:104A1000111D1960ADB202E0111D196015685F4BE0
:104A2000227E039308276F2A1DD00A271BE022004D
:104A30007821453211705A4A19680392081D22687C
:104A400018600D68100602D4500600D5ADB2D30729
:104A500002D520231A4322601027002D03D12023E2
:104A600022689A4322602300002243331A7002E036
:104A70000A274A4B03936368A360002B09DB0422D7
:104A8000216891432160002D05D1049E002B11D097
:104A90007BE0002D79D0049E28003900FEF7B0FE9F
:104AA000039B013E5B5C280033703900FEF722FE59
:104AB000051EF1D1082F09D12368DB0706D56368ED
:104AC0002269934202DC3023013E3370049B9B1B1E
:104AD00023612BE009681A68080607D4490605D542
:104AE000111D19601368A28A1A8004E0111D196053
:104AF000136862691A600023049E236116E01A6835
:104B0000111D1960166800216268300000F006F976
:104B1000002801D0801B6060636803E026004236F5
:104B20003270012323610023049A1370079B09AAA2
:104B300000932100069B0598FFF7A4FE431C02D1B9
:104B40000120404227E02369320006990598079D1D
:104B5000A847431CF4D0236800259B070FD4099B6A
:104B6000E068984217DA180015E022000123193294
:104B700006990598079EB047431CE1D00135E368CC
:104B8000099A9B1A9D42F0DBE9E72600039B423617
:104B90001B7833708EE70BB0F0BDC0466552000045
:104BA00076520000002370B5064C05000800236013
:104BB000FDF712FE431C03D12368002B00D02B60AD
:104BC00070BDC046D406002070B50C000E25495FAC
:104BD00000F0B0F8002803DB636D1B18636503E089
:104BE000A289024B1340A38170BDC046FFEFFFFFB7
:104BF000F8B51F008B8905000C001600DB0505D5F4
:104C00000E23C95E0022022300F074F8A289054B2E
:104C100028001340A38132000E23E15E3B0000F028
:104C20001FF8F8BDFFEFFFFF70B50C000E25495FC0
:104C300000F060F8A389421C03D1054A1340A38108
:104C400004E0802252011343A381606570BDC04619
:104C5000FFEFFFFF10B50E23C95E00F015F810BD81
:104C600070B50500080011000022064C22601A00F1
:104C7000FDF78AFD431C03D12368002B00D02B6075
:104C800070BDC046D4060020002370B5064C050058
:104C900008002360FDF7B2FD431C03D12368002BFD
:104CA00000D02B6070BDC046D4060020002370B534
:104CB000064C0500080011002360FDF7A3FD431C0E
:104CC00003D12368002B00D02B6070BDD4060020D8
:104CD000002370B5064C050008002360FDF798FD21
:104CE000431C03D12368002B00D02B6070BDC0464D
:104CF000D406002070B50500080011000022064C03
:104D000022601A00FDF786FD431C03D12368002BA7
:104D100000D02B6070BDC046D4060020C9B28218F6
:104D2000904204D003788B4202D00130F8E7002093
:104D30007047000070B50500080011000022064C05
:104D400022601A00FDF700FD431C03D12368002BED
:104D500000D02B6070BDC046D4060020EE030000DA
:104D600050060000500600005006000050060000EB
:104D700050060000500600005006000050060000DB
:104D800050060000500600005006000050060000CB
:104D9000500600005006000050060000D603000038
:104DA00050060000500600005006000050060000AB
:104DB000500600005006000050060000500600009B
:104DC000500600005006000050060000500600008B
:104DD000500600005006000050060000E6030000E8
:104DE000500600005006000050060000500600006B
:104DF000500600005006000050060000500600005B
:104E0000500600005006000050060000500600004A
:104E1000500600005006000050060000DE030000AF
:104E2000F6030000BE030000CE030000C60300002E
:104E3000004400420048004202000000030000005D
:104E40002800000029000000040000000500000008
:104E50000600000007000000080000000900000034
:104E60000A0000000B0000002000000021000000EC
:104E7000220000002300000028000000290000009C
:104E8000240000002500000026000000270000008C
:104E900008000000090000000006000000000200F9
:104EA0000000040003090000212200000B000000A4
:104EB0000B000000206080002060800020608000E7
:104EC00020608000010000000200000004000000DB
:104ED000080000000010000000200000004000005A
:104EE000008000000000010000000200000004003B
:104EF000000008000004004200080042000C0042CC
:104F0000001000420014004200180042090A0B0C75
:104F10000D0E0000C61F0000C21F0000C21F0000CF
:104F2000F41F0000F41F0000DE1F0000CC1F000073
:104F3000E41F0000E0210000C0210000C0210000AB
:104F400016220000D2210000EE210000C421000042
:104F5000FC210000191A0000796561722025642087
:104F60006D6F6E746820256420646179202564204B
:104F70000D0A00000A0D2044697363686172676559
:104F80005F7369676E616C5F6164635F726573759F
:104F90006C742069733A202564200D0A000000001B
:104FA0000A0D204368617267655F7369676E616CA3
:104FB0005F6164635F726573756C742069733A2016
:104FC0002564200D0A000000636861726765725FE6
:104FD000737461747573202564200D0A000000004D
:104FE000636F6D6D616E6454797065203D3D202561
:104FF00064000000626174746572795F6368617255
:1050000067655F63616C63756C6174696F6E0D00D9
:1050100074656D7065726174757265203A00000088
:10502000256C64200D0A00000A0D20457874656E19
:10503000646564204644206D657373616765207202
:105040006563656976656420696E205278206275B3
:10505000666665722E2054686520726563656976A0
:10506000656420646174612069733A200D0000005A
:105070000A0D205374616E64617264204644206D91
:105080006573736167652072656365697665642021
:10509000696E205278206275666665722E205468AB
:1050A000652072656365697665642064617461205A
:1050B00069733A200D0000002020256400000000E4
:1050C0000D0A0D000A0D205374616E646172642034
:1050D0004644206D65737361676520726563656919
:1050E00076656420696E204649464F20302E205454
:1050F00068652072656365697665642064617461C2
:105100002069733A200D00000A0D205374616E640B
:10511000617264206E6F726D616C206D6573736176
:10512000676520726563656976656420696E2046EF
:1051300049464F20302E20546865207265636569AA
:1051400076656420646174612069733A200D000003
:105150000A0D20457874656E646564204644206DB0
:105160006573736167652072656365697665642040
:10517000696E204649464F20312E205468652072C2
:105180006563656976656420646174612069733A5A
:10519000200D000050726F746F636F6C2065727227
:1051A0006F722C20706C6561736520646F75626C22
:1051B0006520636865636B2074686520636C6F634A
:1051C0006B20696E2074776F20626F617264732E3A
:1051D000200D0A0D00000000436F6D6D616E6420AC
:1051E0005265636569766564210D00004300000027
:1051F000340000200000000000000000000000005B
:10520000000000000000000000000000000000009E
:10521000000000000000000000000000000000008E
:10522000000000000000000000000000000000007E
:10523000000000000000000000000000000000006E
:10524000000000000000000000000000000000005E
:1052500000000000232D302B2000686C4C00656698
:1052600067454647003031323334353637383941B7
:1052700042434445460030313233343536373839CD
:105280006162636465660000F8B5C046F8BC08BC9E
:105290009E467047E5000000F8B5C046F8BC08BC63
:0852A0009E467047BD000000AE
:0852A800D0E7FF7F01000000C8
:1052B000000000000C0000000000000000000000E2
:1052C00000000000010000001928000095290000DE
:1052D000603D0800603D08000100000079280000E2
:1052E0002D29000000000000F451000014520000BD
:1052F0003452000000000000000000000000000028
:1053000000000000EC510000000000000000000060
:10531000000000000000000000000000000000008D
:10532000000000000000000000000000000000007D
:10533000000000000000000000000000000000006D
:08534000000000003400002011
:04000003000026AD26
:00000001FF
